{
  "_format": "hh-sol-artifact-1",
  "contractName": "KryptoRebus",
  "sourceName": "contracts/KryptoRebus.sol",
  "abi": [
    {
      "inputs": [
        {
          "internalType": "string",
          "name": "_name",
          "type": "string"
        },
        {
          "internalType": "bytes32",
          "name": "_saltHash",
          "type": "bytes32"
        },
        {
          "internalType": "bytes32",
          "name": "_jackpotHash",
          "type": "bytes32"
        },
        {
          "internalType": "uint128",
          "name": "_minWinBalance",
          "type": "uint128"
        },
        {
          "internalType": "uint64",
          "name": "_multiplyToWei",
          "type": "uint64"
        },
        {
          "internalType": "string",
          "name": "_imageHttpFolder",
          "type": "string"
        }
      ],
      "stateMutability": "nonpayable",
      "type": "constructor"
    },
    {
      "inputs": [],
      "name": "Active_false",
      "type": "error"
    },
    {
      "inputs": [],
      "name": "Amount_is_too_low_for_fee",
      "type": "error"
    },
    {
      "inputs": [],
      "name": "Clues_no_or_low_data",
      "type": "error"
    },
    {
      "inputs": [],
      "name": "Cooldown_limit",
      "type": "error"
    },
    {
      "inputs": [
        {
          "internalType": "uint256",
          "name": "numerator",
          "type": "uint256"
        },
        {
          "internalType": "uint256",
          "name": "denominator",
          "type": "uint256"
        }
      ],
      "name": "ERC2981InvalidDefaultRoyalty",
      "type": "error"
    },
    {
      "inputs": [
        {
          "internalType": "address",
          "name": "receiver",
          "type": "address"
        }
      ],
      "name": "ERC2981InvalidDefaultRoyaltyReceiver",
      "type": "error"
    },
    {
      "inputs": [
        {
          "internalType": "uint256",
          "name": "tokenId",
          "type": "uint256"
        },
        {
          "internalType": "uint256",
          "name": "numerator",
          "type": "uint256"
        },
        {
          "internalType": "uint256",
          "name": "denominator",
          "type": "uint256"
        }
      ],
      "name": "ERC2981InvalidTokenRoyalty",
      "type": "error"
    },
    {
      "inputs": [
        {
          "internalType": "uint256",
          "name": "tokenId",
          "type": "uint256"
        },
        {
          "internalType": "address",
          "name": "receiver",
          "type": "address"
        }
      ],
      "name": "ERC2981InvalidTokenRoyaltyReceiver",
      "type": "error"
    },
    {
      "inputs": [],
      "name": "ERC721EnumerableForbiddenBatchMint",
      "type": "error"
    },
    {
      "inputs": [
        {
          "internalType": "address",
          "name": "sender",
          "type": "address"
        },
        {
          "internalType": "uint256",
          "name": "tokenId",
          "type": "uint256"
        },
        {
          "internalType": "address",
          "name": "owner",
          "type": "address"
        }
      ],
      "name": "ERC721IncorrectOwner",
      "type": "error"
    },
    {
      "inputs": [
        {
          "internalType": "address",
          "name": "operator",
          "type": "address"
        },
        {
          "internalType": "uint256",
          "name": "tokenId",
          "type": "uint256"
        }
      ],
      "name": "ERC721InsufficientApproval",
      "type": "error"
    },
    {
      "inputs": [
        {
          "internalType": "address",
          "name": "approver",
          "type": "address"
        }
      ],
      "name": "ERC721InvalidApprover",
      "type": "error"
    },
    {
      "inputs": [
        {
          "internalType": "address",
          "name": "operator",
          "type": "address"
        }
      ],
      "name": "ERC721InvalidOperator",
      "type": "error"
    },
    {
      "inputs": [
        {
          "internalType": "address",
          "name": "owner",
          "type": "address"
        }
      ],
      "name": "ERC721InvalidOwner",
      "type": "error"
    },
    {
      "inputs": [
        {
          "internalType": "address",
          "name": "receiver",
          "type": "address"
        }
      ],
      "name": "ERC721InvalidReceiver",
      "type": "error"
    },
    {
      "inputs": [
        {
          "internalType": "address",
          "name": "sender",
          "type": "address"
        }
      ],
      "name": "ERC721InvalidSender",
      "type": "error"
    },
    {
      "inputs": [
        {
          "internalType": "uint256",
          "name": "tokenId",
          "type": "uint256"
        }
      ],
      "name": "ERC721NonexistentToken",
      "type": "error"
    },
    {
      "inputs": [
        {
          "internalType": "address",
          "name": "owner",
          "type": "address"
        },
        {
          "internalType": "uint256",
          "name": "index",
          "type": "uint256"
        }
      ],
      "name": "ERC721OutOfBoundsIndex",
      "type": "error"
    },
    {
      "inputs": [],
      "name": "NotAllowed",
      "type": "error"
    },
    {
      "inputs": [
        {
          "internalType": "address",
          "name": "owner",
          "type": "address"
        }
      ],
      "name": "OwnableInvalidOwner",
      "type": "error"
    },
    {
      "inputs": [
        {
          "internalType": "address",
          "name": "account",
          "type": "address"
        }
      ],
      "name": "OwnableUnauthorizedAccount",
      "type": "error"
    },
    {
      "inputs": [],
      "name": "Payment_refund_to_sender_failed",
      "type": "error"
    },
    {
      "inputs": [],
      "name": "Payment_to_owner_failed",
      "type": "error"
    },
    {
      "inputs": [],
      "name": "Payment_to_winnerr_failed",
      "type": "error"
    },
    {
      "inputs": [
        {
          "internalType": "uint256",
          "name": "value",
          "type": "uint256"
        },
        {
          "internalType": "uint256",
          "name": "length",
          "type": "uint256"
        }
      ],
      "name": "StringsInsufficientHexLength",
      "type": "error"
    },
    {
      "inputs": [],
      "name": "Winner_no_longer_play",
      "type": "error"
    },
    {
      "anonymous": false,
      "inputs": [
        {
          "indexed": true,
          "internalType": "address",
          "name": "owner",
          "type": "address"
        },
        {
          "indexed": true,
          "internalType": "address",
          "name": "approved",
          "type": "address"
        },
        {
          "indexed": true,
          "internalType": "uint256",
          "name": "tokenId",
          "type": "uint256"
        }
      ],
      "name": "Approval",
      "type": "event"
    },
    {
      "anonymous": false,
      "inputs": [
        {
          "indexed": true,
          "internalType": "address",
          "name": "owner",
          "type": "address"
        },
        {
          "indexed": true,
          "internalType": "address",
          "name": "operator",
          "type": "address"
        },
        {
          "indexed": false,
          "internalType": "bool",
          "name": "approved",
          "type": "bool"
        }
      ],
      "name": "ApprovalForAll",
      "type": "event"
    },
    {
      "anonymous": false,
      "inputs": [
        {
          "indexed": false,
          "internalType": "uint256",
          "name": "_fromTokenId",
          "type": "uint256"
        },
        {
          "indexed": false,
          "internalType": "uint256",
          "name": "_toTokenId",
          "type": "uint256"
        }
      ],
      "name": "BatchMetadataUpdate",
      "type": "event"
    },
    {
      "anonymous": false,
      "inputs": [
        {
          "indexed": false,
          "internalType": "uint256",
          "name": "_tokenId",
          "type": "uint256"
        }
      ],
      "name": "MetadataUpdate",
      "type": "event"
    },
    {
      "anonymous": false,
      "inputs": [
        {
          "indexed": true,
          "internalType": "address",
          "name": "previousOwner",
          "type": "address"
        },
        {
          "indexed": true,
          "internalType": "address",
          "name": "newOwner",
          "type": "address"
        }
      ],
      "name": "OwnershipTransferred",
      "type": "event"
    },
    {
      "anonymous": false,
      "inputs": [
        {
          "indexed": true,
          "internalType": "address",
          "name": "from",
          "type": "address"
        },
        {
          "indexed": true,
          "internalType": "address",
          "name": "to",
          "type": "address"
        },
        {
          "indexed": true,
          "internalType": "uint256",
          "name": "tokenId",
          "type": "uint256"
        }
      ],
      "name": "Transfer",
      "type": "event"
    },
    {
      "inputs": [
        {
          "internalType": "address",
          "name": "to",
          "type": "address"
        },
        {
          "internalType": "uint256",
          "name": "tokenId",
          "type": "uint256"
        }
      ],
      "name": "approve",
      "outputs": [],
      "stateMutability": "nonpayable",
      "type": "function"
    },
    {
      "inputs": [
        {
          "internalType": "address",
          "name": "owner",
          "type": "address"
        }
      ],
      "name": "balanceOf",
      "outputs": [
        {
          "internalType": "uint256",
          "name": "",
          "type": "uint256"
        }
      ],
      "stateMutability": "view",
      "type": "function"
    },
    {
      "inputs": [],
      "name": "getAllPlayers",
      "outputs": [
        {
          "internalType": "address[]",
          "name": "",
          "type": "address[]"
        }
      ],
      "stateMutability": "view",
      "type": "function"
    },
    {
      "inputs": [],
      "name": "getAllUsersData",
      "outputs": [
        {
          "components": [
            {
              "internalType": "uint64",
              "name": "attemptCounter",
              "type": "uint64"
            },
            {
              "internalType": "uint128",
              "name": "attemptSum",
              "type": "uint128"
            },
            {
              "internalType": "uint64",
              "name": "refundCounter",
              "type": "uint64"
            },
            {
              "internalType": "uint128",
              "name": "refundSum",
              "type": "uint128"
            },
            {
              "internalType": "uint32",
              "name": "winCounter",
              "type": "uint32"
            },
            {
              "internalType": "uint128",
              "name": "winSum",
              "type": "uint128"
            },
            {
              "internalType": "uint8",
              "name": "feeCounter",
              "type": "uint8"
            },
            {
              "internalType": "uint64",
              "name": "feeSumPartial",
              "type": "uint64"
            },
            {
              "internalType": "uint128",
              "name": "feeSum",
              "type": "uint128"
            }
          ],
          "internalType": "struct AllUsersData",
          "name": "data",
          "type": "tuple"
        }
      ],
      "stateMutability": "view",
      "type": "function"
    },
    {
      "inputs": [
        {
          "internalType": "uint256",
          "name": "tokenId",
          "type": "uint256"
        }
      ],
      "name": "getApproved",
      "outputs": [
        {
          "internalType": "address",
          "name": "",
          "type": "address"
        }
      ],
      "stateMutability": "view",
      "type": "function"
    },
    {
      "inputs": [],
      "name": "getBalanceInEth",
      "outputs": [
        {
          "internalType": "string",
          "name": "",
          "type": "string"
        }
      ],
      "stateMutability": "view",
      "type": "function"
    },
    {
      "inputs": [],
      "name": "getClueIntegrity",
      "outputs": [
        {
          "internalType": "uint16",
          "name": "cluesOK",
          "type": "uint16"
        },
        {
          "internalType": "uint16",
          "name": "",
          "type": "uint16"
        }
      ],
      "stateMutability": "view",
      "type": "function"
    },
    {
      "inputs": [
        {
          "internalType": "uint256",
          "name": "index",
          "type": "uint256"
        }
      ],
      "name": "getCluePriceInEth",
      "outputs": [
        {
          "internalType": "string",
          "name": "",
          "type": "string"
        }
      ],
      "stateMutability": "view",
      "type": "function"
    },
    {
      "inputs": [
        {
          "internalType": "uint8",
          "name": "varianta",
          "type": "uint8"
        },
        {
          "internalType": "uint128",
          "name": "userIndex",
          "type": "uint128"
        }
      ],
      "name": "getJackpotWinBalanceInEth",
      "outputs": [
        {
          "internalType": "string",
          "name": "",
          "type": "string"
        },
        {
          "internalType": "string",
          "name": "",
          "type": "string"
        },
        {
          "internalType": "string",
          "name": "",
          "type": "string"
        },
        {
          "internalType": "string",
          "name": "",
          "type": "string"
        }
      ],
      "stateMutability": "view",
      "type": "function"
    },
    {
      "inputs": [],
      "name": "getRebusData",
      "outputs": [
        {
          "components": [
            {
              "internalType": "string",
              "name": "name",
              "type": "string"
            },
            {
              "internalType": "uint256",
              "name": "attemptMinimum",
              "type": "uint256"
            },
            {
              "internalType": "bool",
              "name": "active",
              "type": "bool"
            },
            {
              "internalType": "uint8",
              "name": "prcJackpotOfBalance",
              "type": "uint8"
            },
            {
              "internalType": "uint256",
              "name": "multiplyToWei",
              "type": "uint256"
            },
            {
              "internalType": "string",
              "name": "imageHttpFolder",
              "type": "string"
            },
            {
              "internalType": "string",
              "name": "frontHttpAdress",
              "type": "string"
            }
          ],
          "internalType": "struct RebusData",
          "name": "",
          "type": "tuple"
        }
      ],
      "stateMutability": "view",
      "type": "function"
    },
    {
      "inputs": [],
      "name": "getUserDataOfAll",
      "outputs": [
        {
          "components": [
            {
              "internalType": "uint128",
              "name": "attemptSum",
              "type": "uint128"
            },
            {
              "internalType": "uint128",
              "name": "winSum",
              "type": "uint128"
            },
            {
              "internalType": "uint32",
              "name": "attemptCounter",
              "type": "uint32"
            },
            {
              "internalType": "uint32",
              "name": "depositFeeCounter",
              "type": "uint32"
            },
            {
              "internalType": "uint16",
              "name": "returnDepositMinimum",
              "type": "uint16"
            },
            {
              "internalType": "uint16",
              "name": "returnDepositMaximum",
              "type": "uint16"
            },
            {
              "internalType": "uint16",
              "name": "depositFee",
              "type": "uint16"
            },
            {
              "internalType": "uint16",
              "name": "clueLast",
              "type": "uint16"
            },
            {
              "internalType": "uint8",
              "name": "winCounter",
              "type": "uint8"
            },
            {
              "internalType": "uint128",
              "name": "initialized",
              "type": "uint128"
            },
            {
              "internalType": "bool",
              "name": "cluesGeneratedOnly",
              "type": "bool"
            },
            {
              "internalType": "bool",
              "name": "cluesRandom",
              "type": "bool"
            }
          ],
          "internalType": "struct UserData[]",
          "name": "",
          "type": "tuple[]"
        }
      ],
      "stateMutability": "view",
      "type": "function"
    },
    {
      "inputs": [
        {
          "internalType": "address",
          "name": "owner",
          "type": "address"
        },
        {
          "internalType": "address",
          "name": "operator",
          "type": "address"
        }
      ],
      "name": "isApprovedForAll",
      "outputs": [
        {
          "internalType": "bool",
          "name": "",
          "type": "bool"
        }
      ],
      "stateMutability": "view",
      "type": "function"
    },
    {
      "inputs": [
        {
          "internalType": "string",
          "name": "_from",
          "type": "string"
        },
        {
          "internalType": "string",
          "name": "_message",
          "type": "string"
        },
        {
          "internalType": "string",
          "name": "_add",
          "type": "string"
        }
      ],
      "name": "messageToOwner",
      "outputs": [],
      "stateMutability": "payable",
      "type": "function"
    },
    {
      "inputs": [
        {
          "internalType": "address",
          "name": "_to",
          "type": "address"
        },
        {
          "internalType": "string",
          "name": "nftName",
          "type": "string"
        },
        {
          "internalType": "string",
          "name": "nftDesc",
          "type": "string"
        },
        {
          "internalType": "string",
          "name": "nftImage",
          "type": "string"
        }
      ],
      "name": "mintSimpleNFT",
      "outputs": [],
      "stateMutability": "nonpayable",
      "type": "function"
    },
    {
      "inputs": [],
      "name": "name",
      "outputs": [
        {
          "internalType": "string",
          "name": "",
          "type": "string"
        }
      ],
      "stateMutability": "view",
      "type": "function"
    },
    {
      "inputs": [
        {
          "internalType": "bool",
          "name": "_addOnly",
          "type": "bool"
        },
        {
          "internalType": "string",
          "name": "_name",
          "type": "string"
        },
        {
          "internalType": "uint128",
          "name": "_attemptMinimum",
          "type": "uint128"
        },
        {
          "internalType": "uint64",
          "name": "_multiplyToWei",
          "type": "uint64"
        },
        {
          "internalType": "string",
          "name": "_imageHttpFolder",
          "type": "string"
        },
        {
          "internalType": "string",
          "name": "_frontHttpAdress",
          "type": "string"
        },
        {
          "internalType": "uint128",
          "name": "_minWinBalance",
          "type": "uint128"
        },
        {
          "internalType": "bytes[]",
          "name": "_encodedItems",
          "type": "bytes[]"
        }
      ],
      "name": "newRebusData",
      "outputs": [],
      "stateMutability": "nonpayable",
      "type": "function"
    },
    {
      "inputs": [],
      "name": "nextTokenId",
      "outputs": [
        {
          "internalType": "uint128",
          "name": "",
          "type": "uint128"
        }
      ],
      "stateMutability": "view",
      "type": "function"
    },
    {
      "inputs": [],
      "name": "owner",
      "outputs": [
        {
          "internalType": "address",
          "name": "",
          "type": "address"
        }
      ],
      "stateMutability": "view",
      "type": "function"
    },
    {
      "inputs": [
        {
          "internalType": "uint256",
          "name": "tokenId",
          "type": "uint256"
        }
      ],
      "name": "ownerOf",
      "outputs": [
        {
          "internalType": "address",
          "name": "",
          "type": "address"
        }
      ],
      "stateMutability": "view",
      "type": "function"
    },
    {
      "inputs": [],
      "name": "renounceOwnership",
      "outputs": [],
      "stateMutability": "nonpayable",
      "type": "function"
    },
    {
      "inputs": [
        {
          "internalType": "uint256",
          "name": "tokenId",
          "type": "uint256"
        },
        {
          "internalType": "uint256",
          "name": "salePrice",
          "type": "uint256"
        }
      ],
      "name": "royaltyInfo",
      "outputs": [
        {
          "internalType": "address",
          "name": "receiver",
          "type": "address"
        },
        {
          "internalType": "uint256",
          "name": "amount",
          "type": "uint256"
        }
      ],
      "stateMutability": "view",
      "type": "function"
    },
    {
      "inputs": [
        {
          "internalType": "address",
          "name": "from",
          "type": "address"
        },
        {
          "internalType": "address",
          "name": "to",
          "type": "address"
        },
        {
          "internalType": "uint256",
          "name": "tokenId",
          "type": "uint256"
        }
      ],
      "name": "safeTransferFrom",
      "outputs": [],
      "stateMutability": "nonpayable",
      "type": "function"
    },
    {
      "inputs": [
        {
          "internalType": "address",
          "name": "from",
          "type": "address"
        },
        {
          "internalType": "address",
          "name": "to",
          "type": "address"
        },
        {
          "internalType": "uint256",
          "name": "tokenId",
          "type": "uint256"
        },
        {
          "internalType": "bytes",
          "name": "data",
          "type": "bytes"
        }
      ],
      "name": "safeTransferFrom",
      "outputs": [],
      "stateMutability": "nonpayable",
      "type": "function"
    },
    {
      "inputs": [
        {
          "internalType": "bool",
          "name": "_state",
          "type": "bool"
        }
      ],
      "name": "setActive",
      "outputs": [],
      "stateMutability": "nonpayable",
      "type": "function"
    },
    {
      "inputs": [
        {
          "internalType": "address",
          "name": "operator",
          "type": "address"
        },
        {
          "internalType": "bool",
          "name": "approved",
          "type": "bool"
        }
      ],
      "name": "setApprovalForAll",
      "outputs": [],
      "stateMutability": "nonpayable",
      "type": "function"
    },
    {
      "inputs": [
        {
          "internalType": "address",
          "name": "newRecipient",
          "type": "address"
        }
      ],
      "name": "setRoyaltyRecipient",
      "outputs": [],
      "stateMutability": "nonpayable",
      "type": "function"
    },
    {
      "inputs": [
        {
          "internalType": "bytes4",
          "name": "interfaceId",
          "type": "bytes4"
        }
      ],
      "name": "supportsInterface",
      "outputs": [
        {
          "internalType": "bool",
          "name": "",
          "type": "bool"
        }
      ],
      "stateMutability": "view",
      "type": "function"
    },
    {
      "inputs": [],
      "name": "symbol",
      "outputs": [
        {
          "internalType": "string",
          "name": "",
          "type": "string"
        }
      ],
      "stateMutability": "view",
      "type": "function"
    },
    {
      "inputs": [
        {
          "internalType": "uint256",
          "name": "index",
          "type": "uint256"
        }
      ],
      "name": "tokenByIndex",
      "outputs": [
        {
          "internalType": "uint256",
          "name": "",
          "type": "uint256"
        }
      ],
      "stateMutability": "view",
      "type": "function"
    },
    {
      "inputs": [
        {
          "internalType": "address",
          "name": "owner",
          "type": "address"
        },
        {
          "internalType": "uint256",
          "name": "index",
          "type": "uint256"
        }
      ],
      "name": "tokenOfOwnerByIndex",
      "outputs": [
        {
          "internalType": "uint256",
          "name": "",
          "type": "uint256"
        }
      ],
      "stateMutability": "view",
      "type": "function"
    },
    {
      "inputs": [
        {
          "internalType": "uint256",
          "name": "tokenId",
          "type": "uint256"
        }
      ],
      "name": "tokenURI",
      "outputs": [
        {
          "internalType": "string",
          "name": "",
          "type": "string"
        }
      ],
      "stateMutability": "view",
      "type": "function"
    },
    {
      "inputs": [],
      "name": "totalSupply",
      "outputs": [
        {
          "internalType": "uint256",
          "name": "",
          "type": "uint256"
        }
      ],
      "stateMutability": "view",
      "type": "function"
    },
    {
      "inputs": [
        {
          "internalType": "address",
          "name": "from",
          "type": "address"
        },
        {
          "internalType": "address",
          "name": "to",
          "type": "address"
        },
        {
          "internalType": "uint256",
          "name": "tokenId",
          "type": "uint256"
        }
      ],
      "name": "transferFrom",
      "outputs": [],
      "stateMutability": "nonpayable",
      "type": "function"
    },
    {
      "inputs": [
        {
          "internalType": "address",
          "name": "newOwner",
          "type": "address"
        }
      ],
      "name": "transferOwnership",
      "outputs": [],
      "stateMutability": "nonpayable",
      "type": "function"
    },
    {
      "inputs": [],
      "name": "withdrawAll",
      "outputs": [],
      "stateMutability": "nonpayable",
      "type": "function"
    },
    {
      "stateMutability": "payable",
      "type": "receive"
    }
  ],
  "bytecode": "0x60806040523462000af9576200696a803803806200001d8162000b1e565b928339810160c08282031262000af95781516001600160401b03811162000af957816200004c91840162000b44565b6020830151604084015160608501519491939092916001600160801b038616860362000af95760808101516001600160401b038116929083900362000af95760a08201516001600160401b03811162000af957620000ab920162000b44565b90620000b662000afe565b600e81526d12dc9e5c1d1bd499589d5cd3919560921b6020820152620000db62000afe565b6005815264524542555360d81b6020820152815190916001600160401b038211620004f45781906200010f60005462000bb6565b601f811162000ab8575b50602090601f831160011462000a405760009262000a34575b50508160011b916000199060031b1c1916176000555b8051906001600160401b038211620004f45781906200016960015462000bb6565b601f8111620009f2575b50602090601f831160011462000978576000926200096c575b50508160011b916000199060031b1c1916176001555b33156200095357600d8054336001600160a01b0319821681179092556001600160a01b03167f8be0079c531659141344cd1fd0a4f28419497f9722a3daafe3b4186f6b6457e0600080a3602080546001600160801b03191690556040519260e084016001600160401b03811185821017620004f4576040528352600160208401526001604084015260636060840152608083015260a08201526200024562000afe565b601e81527f68747470733a2f2f6b727970746f72656275732e6769746875622e696f2f0000602082015260c082015280518051906001600160401b038211620004f457819062000297600f5462000bb6565b601f811162000911575b50602090601f8311600114620008935760009262000887575b50508160011b916000199060031b1c191617600f555b60208101516010556040810151151560115460ff61ff00606085015160081b1692169061ffff19161717601155608081015160125560a081015180519060018060401b038211620004f4576200032860135462000bb6565b601f811162000845575b50602090601f8311600114620007c75760c093929160009183620007bb575b50508160011b916000199060031b1c1916176013555b015180519093906001600160401b038111620004f4576200038a60145462000bb6565b601f811162000768575b50602094601f8211600114620006fb57948192939495600092620006ef575b50508160011b916000199060031b1c1916176014555b60405160208101939092906001600160401b03851184861017620004f45760408581526000855251608081016001600160401b03811182821017620004f4576040908152828252602082018490526001600160801b0394909416938101849052606001849052601555601655601780546001600160801b03191690911790555190680100000000000000008211620004f4576018548260185580831062000653575b50601860009081527fb13d2d76d1f4b7be834882e410b3e3a8afaf69f83600ae24db354391d2378d2e92915b8282106200052357600d546001600160a01b031680156200050a57604080519081016001600160401b03811182821017620004f4576101f4916020916040528381520152607d60a21b17600b55604051615cdd908162000c0d8239f35b634e487b7160e01b600052604160045260246000fd5b604051635b6cc80560e11b815260006004820152602490fd5b80518051906001600160401b038211620004f45762000543865462000bb6565b601f811162000611575b50602090601f83116001146200059e57928260019493602093869560009262000592575b5050600019600383901b1c191690841b1787555b0194019101909262000497565b01519050388062000571565b90601f198316918760005260206000209260005b818110620005f85750936020936001969387969383889510620005de575b505050811b01875562000585565b015160001960f88460031b161c19169055388080620005d0565b92936020600181928786015181550195019301620005b2565b6200064190876000526020600020601f850160051c8101916020861062000648575b601f0160051c019062000bf3565b386200054d565b909150819062000633565b60186000527fb13d2d76d1f4b7be834882e410b3e3a8afaf69f83600ae24db354391d2378d2e9081019083015b8181106200068f57506200046b565b806200069e6001925462000bb6565b80620006ad575b500162000680565b601f81118314620006c55750600081555b38620006a5565b600090828252620006e5601f60208420920160051c820185830162000bf3565b81835555620006be565b015190503880620003b3565b601f19821695601460005260206000209160005b8881106200074f5750836001959697981062000735575b505050811b01601455620003c9565b015160001960f88460031b161c1916905538808062000726565b919260206001819286850151815501940192016200070f565b6014600052620007b4907fce6d7b5282bd9a3661ae061feed1dbda4e52ab073b1f9285be6e155d9c38d4ec601f840160051c810191602085106200064857601f0160051c019062000bf3565b3862000394565b01519050388062000351565b601360009081526000805160206200690a833981519152929190601f198516905b8181106200082c575091600193918560c09796941062000812575b505050811b0160135562000367565b015160001960f88460031b161c1916905538808062000803565b92936020600181928786015181550195019301620007e8565b601360005262000880906000805160206200690a833981519152601f850160051c810191602086106200064857601f0160051c019062000bf3565b3862000332565b015190503880620002ba565b600f600090815293506000805160206200694a83398151915291905b601f1984168510620008f5576001945083601f19811610620008db575b505050811b01600f55620002d0565b015160001960f88460031b161c19169055388080620008cc565b81810151835560209485019460019093019290910190620008af565b600f6000526200094c906000805160206200694a833981519152601f850160051c810191602086106200064857601f0160051c019062000bf3565b38620002a1565b604051631e4fbdf760e01b815260006004820152602490fd5b0151905038806200018c565b600160009081526000805160206200692a8339815191529350601f198516905b818110620009d95750908460019594939210620009bf575b505050811b01600155620001a2565b015160001960f88460031b161c19169055388080620009b0565b9293602060018192878601518155019501930162000998565b600160005262000a2d906000805160206200692a833981519152601f850160051c810191602086106200064857601f0160051c019062000bf3565b3862000173565b01519050388062000132565b6000808052600080516020620068ea8339815191529350601f198516905b81811062000a9f575090846001959493921062000a85575b505050811b0160005562000148565b015160001960f88460031b161c1916905538808062000a76565b9293602060018192878601518155019501930162000a5e565b6000805262000af290600080516020620068ea833981519152601f850160051c810191602086106200064857601f0160051c019062000bf3565b3862000119565b600080fd5b60408051919082016001600160401b03811183821017620004f457604052565b6040519190601f01601f191682016001600160401b03811183821017620004f457604052565b919080601f8401121562000af95782516001600160401b038111620004f45760209062000b7a601f8201601f1916830162000b1e565b9281845282828701011162000af95760005b81811062000ba257508260009394955001015290565b858101830151848201840152820162000b8c565b90600182811c9216801562000be8575b602083101462000bd257565b634e487b7160e01b600052602260045260246000fd5b91607f169162000bc6565b81811062000bff575050565b6000815560010162000bf356fe6080806040526004361015611a92575b50361561001b57600080fd5b60115460ff600091161580611a88575b50338152601960205260408120600201546001600160801b031615611a7a57338152601960205260016040822001805490600360ff8360801c1611611a76576100879061008163ffffffff809460201c166146ea565b906146ff565b338252601960205260016040832001908154906100a58183166146ea565b63ffffffff19909216911617905533815260196020526040812080546001600160801b036100d73482168284166145a8565b6001600160801b031990921691161790555b338152601960205261ffff61010a60ff600160408520015460801c16614796565b16158015611a6a575b1561014657338152601960205261ffff61013960ff600160408520015460801c16614796565b161561014357505b005b80fd5b601a546001600160401b0361015c8183166144d9565b16600160401b600160c01b0361018d6001600160801b03348116906001600160401b03198616851760401c166145a8565b60401b169160018060c01b0319161717601a55338152601960205260016040822001805460ff8160801c1615611a52575b505480607f1c6101fe811660fe8216036118375760fe63ffffffff91169160201c1611611a2a575b3381526019602052606461022a61020b61ffff600160408620015460601c16346143b0565b338452601960205263ffffffff600160408620015460201c16906143b0565b04348111611a23575b338252601960205260408220906001820154600263ffffffff821610611a1b575b6002909201549091610275916001600160801b03169060801c60ff166145ce565b3414806119f4575b156107f357506011546001600160801b03906064906102a29060081c60ff16476143b0565b0416906102b963ffffffff601b5460801c16614a53565b916102f160216040518095602360f81b60208301526102e18151809260208686019101613b7a565b8101036001810186520184613ca1565b6102fa816158e7565b60018060801b03331160071b60018060401b0333821c1160061b1763ffffffff33821c1160051b1761ffff33821c1160041b17906001339260ff84821c119060031c170160018060ff1b03811681036107df5760028160011b01808260011b116107cb5761036790614a21565b928351156107b757603060208501538351600110156107b75760786021850153600182811b01808360011b116107a3575b6001811161074d575061072f57506040516103b281613c6b565b600481526357494e2160e01b60208201526040516b02cb7ba9030b932903bb4b7160a51b602082015261042a604b8285516103f481602c840160208a01613b7a565b81017f652120476f6f64206c75636b20696e20746865206e657874206c6576656c2100602c82015203602b810184520182613ca1565b338652601960205261045260ff61044c81600160408b20015460801c166144b5565b16614a53565b9161048d602460405180956377696e5f60e01b602083015261047d8151809260208686019101613b7a565b8101036004810186520184613ca1565b8680808089335af161049d614260565b501561072b5760259261054194926104b59233614c88565b6104f6602b60405180996a02732bb903bb4b73732b9160ad1b60208301526104e68151809260208686019101613b7a565b810103600b81018a520188613ca1565b604051938161050f869351809260208087019101613b7a565b8201640103a379d160dd1b60208201526105328251809360208785019101613b7a565b01036005810184520182613ca1565b6040519361054e85613c6b565b600b85526a34b73337afbbb4b73732b960a91b602086015260018060a01b038480808084600d541647905af1610582614260565b50156107275791610141959161059b93600d5416614c88565b601b5463ffffffff60801b6105b9608083901c63ffffffff166146ea565b60801b1663ffffffff60801b199190911617601b55601c54906001600160801b036105e6828285166145a8565b166001600160801b031992831617601c55338352601960205260408320600101805460ff60801b61061d60ff608084901c166144b5565b60801b169060ff60801b1916179055338352601960205260408320916106488354928360801c6145a8565b60801b169060018060801b0316179055338152601960205261067a60ff61044c81600160408620015460801c166144b5565b906106b860276040518094664c6576656c202360c81b60208301526106a88151809260208686019101613b7a565b8101036007810185520183613ca1565b6106e260ff61044c81600160406106cd6148ce565b96338152601960205220015460801c166144b5565b91610721602860405180956777656c636f6d655f60c01b60208301526107118151809260208686019101613b7a565b8101036008810186520184613ca1565b33614c88565b8480fd5b8680fd5b6044906040519063e22e27eb60e01b82523360048301526024820152fd5b90600f8116601081101561078f5761078a91906f181899199a1a9b1b9c1cb0b131b232b360811b901a6107808488614b90565b5360041c91614ba1565b610398565b634e487b7160e01b88526032600452602488fd5b634e487b7160e01b87526011600452602487fd5b634e487b7160e01b86526032600452602486fd5b634e487b7160e01b86526011600452602486fd5b634e487b7160e01b85526011600452602485fd5b601054341015610807575050610141615184565b61082a9060018060a01b03600d5416331415806119d4575b61189b575b34614676565b60405161084e8161084033464260208501614bcc565b03601f198101835282613ca1565b60208151910120338352601960205260016040842001549061ffff808360401c169260501c1680831460001461186757505050338252601960205261ffff600160408420015460401c165b4780605a810204605a1481151715611853576108c161ffff6064605a819402049316846143b0565b048181111561184b5750905b806118135750815b8080808085335af16108e5614260565b508015611792575b50601a546001600160c01b031961090760c083901c6144d9565b60c01b166001600160c01b039190911617601a55601b546001600160801b036109348482168284166145a8565b6001600160801b0319909216911617601b5560405161095281613c6b565b6002815261032960f51b602082015261096a346158e7565b90610a01602961098661ffff61097f886158e7565b9816614a53565b96604051978891643130b1b59d60d91b60208401526109af815180926020602587019101613b7a565b82018551906109c5826025830160208a01613b7a565b01600560fb1b60258201526109e4825180936020602685019101613b7a565b016201294960ed1b60268201526009828203018252030186613ca1565b604051610a0d81613c6b565b600a81526909cde40c6d8eaca4074560b31b602082015294839184601e5493846000198101116107a35760015b61ffff60001987011661ffff8216101561178857610a578161440a565b5061ffff600260405192610a6a84613bfd565b80546001600160401b03168452604051610a9281610a8b8160018601613eb1565b0382613ca1565b602085015201548181166040840152818160101c1660608401528060201c60070b608084015260601c1660a0820152610ace61ffff8316614683565b34148061176b575b8061175a575b610aef5750610aea906143f7565b610a3a565b602081015160019b509199935091508861ffff81168b03611197575050602001513387526019602052610b876020610b3b610b3660ff600160408d20015460801c1661450a565b6158e7565b926040519381610b548693518092868087019101613b7a565b8201610b6882518093868085019101613b7a565b01865190610b7b82858301868b01613b7a565b01038084520182613ca1565b935b6040516020810190610ba18161084033464287614bcc565b51902098338852601960205260ff600260408a20015460881c161560001461113757338852601960205261ffff600160408a20015460701c1691610be483614722565b61ffff60001983011661ffff82161115611101575b5050338852601960205261ffff600160408a20015460701c1661ffff8316146110f8575b601e5461ffff83161015610f7c576101419950610c3d61ffff8316614683565b338952601960205260408920600101805461ffff60701b191660709490941b61ffff60701b16939093179092555b60405192610c7884613c6b565b60048452633a393c9d60e11b602085015261ffff604051610c9881613c86565b8a81529a16600f8110159081610f70575b50610f48575b3410610f21575b15610d9d5791610d519391610ccc6022946158e7565b906040519684610ce689965180926020808a019101613b7a565b8501610cfb8251809360208085019101613b7a565b0161016160f51b6020820152610d1a8251809360208985019101613b7a565b01610d2e8251809360208885019101613b7a565b01610d428251809360208785019101613b7a565b01036002810184520182613ca1565b91835160208501209080604051610d6781613c86565b52802014610d755733614c88565b9150604051610d8381613c6b565b6007815266636c75655f737960c81b602082015291610721565b9192935033865260196020526040862060028101549060ff8260801c16600014610ea657505092610e6092602292610cfb953389526019602052610e08610e03610b3660408c2060ff600182015460801c1690600260018060801b0391015416906145ce565b615b1a565b610e3660405193610b3660208681610e298183019788815193849201613b7a565b8101038088520186613ca1565b926040519886610e508b985180926020808c019101613b7a565b8701915180936020840190613b7a565b91835160208501209080604051610e7681613c86565b52802003610721579150604051610e8c81613c6b565b60078152660c6d8eacabee6d60cb1b602082015291610721565b92610cfb9592610e08610e03610ed6610edb989560ff600160229a015460801c169060018060801b0316906145ce565b614a53565b91835160208501209080604051610ef181613c86565b52802003610721579150604051610f0781613c6b565b6007815266636c75655f6c6f60c81b602082015291610721565b9750604051610f2f81613c6b565b60068152651c1c9bd99a5d60d21b602082015297610cb6565b9850604051610f5681613c6b565b6007815266636c75655f736560c81b602082015298610caf565b60299150111538610ca9565b9050600a984797888060011b04600214891517156110e457610fa4601254809a60011b6143c3565b600a106110bd575b3381526019602052610fda6040822060ff600182015460801c1690600260018060801b0391015416906145ce565b808060011b04600214811517156110a95789610ff89160011b6143c3565b8b1061103f575b9760018b018b116110295761101e6110239260016101419d0190614bf2565b6143b0565b90610c6b565b634e487b7160e01b600052601160045260246000fd5b3381526019602052604081206001810154600290910154919b50611072916001600160801b03169060801c60ff166145ce565b8060011b9080820460021490151715611095578861108f916143c3565b99610fff565b634e487b7160e01b8b52601160045260248bfd5b634e487b7160e01b82526011600452602482fd5b995047808060011b046002148115171561109557886110de9160011b6143c3565b99610fac565b634e487b7160e01b81526011600452602490fd5b60019150610c1d565b600261110c8261440a565b50015460201c60070b61112c5761112561ffff916143f7565b9050610be4565b925038905080610bf9565b906000190160011b6201fffe61fffe8216911681036111835761ffff61116761116261116e93614429565b614722565b168a614bf2565b600101806001116111835761ffff1690610c1d565b634e487b7160e01b88526011600452602488fd5b61ffff81166002036111bf575050602001516111b96020610b3b6010546158e7565b93610b89565b61ffff81166004036111e957505060200151601a546111b9916001600160401b0390911690615856565b61ffff8116600503611216575050602001516111b96020610b3b60018060801b03601a5460401c166158e7565b61ffff811660060361123e57505060206111b991015163ffffffff601b5460801c1690615856565b61ffff8116600703611268575050602001516111b96020610b3b60018060801b03601c54166158e7565b61ffff81166008036112cc5750506112af6112a160206111b9930151338a52601960205261ffff600160408c20015460501c1690615856565b6112a9614bae565b90615824565b338852601960205261ffff600160408a20015460401c1690615856565b61ffff81166009036112ff57505060206111b9910151338852601960205261ffff600160408a20015460601c1690615856565b61ffff8116600a0361133457505060206111b9910151338852601960205263ffffffff600160408a20015460201c1690615856565b61ffff8116600b0361136657505060206111b9910151338852601960205263ffffffff600160408a2001541690615856565b61ffff8116600c0361139a5750506020015133875260196020526111b96020610b3b60018060801b0360408b2054166158e7565b61ffff8116600d036113cc57505060206111b9910151338852601960205260ff600260408a20015460881c169061587e565b61ffff8116600e036113fe57505060206111b9910151338852601960205260ff600260408a20015460801c169061587e565b600f61ffff821610158061174b575b156114685750508061ffff606061145e6112a18b6114436001604087876111b99b01511693338152601960205220019182614871565b611454856040880151168092614890565b6020860151615856565b9201511690615856565b601a61ffff821610158061173c575b156114c057505080602061ffff60406111b99401511691338a52601982526114a6600160408c20019384614871565b6114b961ffff6040830151168094614890565b0151615856565b601c61ffff821610158061172d575b1561150e575050806114fa61ffff60406111b994015116338a526019602052600160408b20016148af565b61ffff604060208301519201511690615856565b61ffff811660210361159b575050338752601960205263ffffffff600160408920015460201c16600a81116000146115875763ffffffff600919820111611183579063ffffffff60206111b99360091901925b338b5260198252611579600160408d200194856146ff565b0151915460201c1690615856565b506111b99063ffffffff6020600192611561565b61ffff811660220361165457505060209033885260198252600160408920016001831b63ffffffff841b19825416179055015160016040516115dc81613c6b565b6001815260208101916020368437600a602183015b60001901916f181899199a1a9b1b9c1cb0b131b232b360811b8282061a83530490811561162057600a906115f1565b5050610b7b926111b99260209260405195836116458895518092888089019101613b7a565b84019151809386840190613b7a565b61ffff81166025036116b95750506111b990338852601960205260ff600260408a20019160208354916088928481851c166000146116a557508360881b1985541685555b01519254901c169061587e565b608885901b1916600160881b178555611698565b9095919061ffff166027146116cf575b50610b89565b611712919550338852601960205260ff6020600260408b2001928354838160801c1660001461171957508260801b1984541684555b0151915460801c169061587e565b93386116c9565b608084901b1916600160801b178455611704565b50602061ffff821611156114cf565b50601b61ffff82161115611477565b50601861ffff8216111561140d565b5061ffff6060820151161515610adc565b50338952601960205260ff600260408b20015460801c1615610ad6565b5096909793610b89565b600d54604051611808916001600160a01b0316906117af81613c6b565b6002815261194d60f21b6020820152604051906117cb82613c6b565b600c82526b4e6f20726566756e6465642160a01b6020830152604051926117f184613c6b565b600584526432b93937b960d91b6020850152614c88565b1561014357386108ed565b816064810204606414821517156118375761183190606483026143c3565b916108d5565b634e487b7160e01b83526011600452602483fd5b9050906108cd565b634e487b7160e01b84526011600452602484fd5b82900361ffff81116107df579161188f6118959261ffff6118888196614722565b1690614bf2565b906145c1565b16610899565b601d546001600160801b036118b48382168284166145a8565b6001600160801b0319909216911617601d55601c54608081901c60ff16600a811115611978575050600d54601c54849182918291829160881c6001600160401b0316906001600160a01b03165af161190a614260565b50611928575b601c8054600160801b600160c81b0319169055610824565b600d54611973906001600160a01b0316611941836158e7565b6040519061194e82613c86565b8682526040519261195e84613c6b565b600384526266656560e81b6020850152614c88565b611910565b60ff60801b90611987906144b5565b60801b16600160881b600160c81b036119b86001600160401b038581169060ff60801b198616851760881c166144f1565b60881b1691600160801b600160c81b0319161717601c55610824565b503383526019602052600263ffffffff600160408620015416101561081f565b50473383526019602052611a1460ff600160408620015460801c1661450a565b111561027d565b839150610254565b5034610233565b338152601960205260408120600101805463ffffffff60201b1916600160201b1790556101e6565b63ffffffff60201b1916600160201b178155386101be565b506012601e5410610113565b8280fd5b611a8334614907565b6100e9565b610143573861002b565b60003560e01c90816301ffc9a714613ac15750806306fdde0314613a1e578063081812fc146139e0578063095ea7b3146138f9578063165df46714612dbe57806317554f1714612d9457806318160ddd14612d765780631a33576114612b2257806322931cd91461299857806323b872dd146129815780632a55205a146129075780632f745c591461288e5780633f3309ca1461286957806341e42f30146127e757806342842e0e146127b95780634f6ccce7146127635780635f650a61146124d65780636352211e146124a657806370a082311461247b578063715018a61461243057806375794a3c14612409578063837a258f14612355578063853828b6146123055780638da5cb5b146122dc57806395d89b4114612217578063a22cb46514612172578063acec338a1461213c578063b88d4fde146120e1578063ba3544a2146120b3578063c87b56dd1461204c578063dfc3829414611fd8578063e2ba3c5c14611da4578063e985e9c514611d4e578063efa1c48214611c9b5763f2fde38b14611c20573861000f565b34611c96576020366003190112611c9657611c39613bc2565b611c41613d8d565b6001600160a01b03908116908115611c7d57600d80546001600160a01b03198116841790915516600080516020615c28833981519152600080a3005b604051631e4fbdf760e01b815260006004820152602490fd5b600080fd5b34611c96576000366003190112611c9657611cb4613d8d565b60405180600e5480835260208093018091600e600052846000209060005b86828210611d31578686611ce882880383613ca1565b604051928392818401908285525180915260408401929160005b828110611d1157505050500390f35b83516001600160a01b031685528695509381019392810192600101611d02565b83546001600160a01b031685529093019260019283019201611cd2565b34611c96576040366003190112611c9657611d67613bc2565b611d6f613bd8565b9060018060a01b03809116600052600560205260406000209116600052602052602060ff604060002054166040519015158152f35b6060366003190112611c96576001600160401b03600435818111611c9657611dd0903690600401613cdf565b90602435818111611c9657611de9903690600401613cdf565b90604435908111611c9657611e02903690600401613cdf565b336000526020906019825260018060801b0392836002604060002001541615611fca575b6010543410611fbd576101419483611f6e9454611f7487821688611e4982614bfc565b166001600160801b0319938416178455600d54611e709082906001600160a01b0316614d5e565b611f6e87611e7d83614a53565b611eb260216040518093602360f81b8b830152611ea2815180928d8686019101613b7a565b8101036001810184520182613ca1565b611f296024611ec0346158e7565b6040519b8c9b82611edb8d8f95519281849288019101613b7a565b830161032960f51b8d820152611efb8d8351938491602285019101613b7a565b016101d160f51b6022820152611f1a8c83519384918785019101613b7a565b0103600481018b520189613ca1565b604051988991611f69600b84611f408c8201614c14565b666d65737361676560c81b8152632e706e6760e01b600782015203601419810186520184613ca1565b615467565b90615073565b81549087821697611f8489614bfc565b169116178155611f948633614d5e565b6b1b595cdcd859d9481cd95b9d60a21b60405191611fb183613c6b565b600c8352820152615467565b5050505050610141615184565b611fd334614907565b611e26565b34611c96576080366003190112611c9657611ff1613bc2565b6001600160401b0390602435828111611c9657612012903690600401613cdf565b604435838111611c965761202a903690600401613cdf565b90606435938411611c9657612046610141943690600401613cdf565b92614c88565b34611c96576020366003190112611c9657600435612069816141ef565b50600052600a6020526120af610a8b61208c604060002060405192838092613eb1565b600060405161209a81613c86565b52604051918291602083526020830190613b9d565b0390f35b34611c96576000366003190112611c965760406120ce61443d565b825161ffff928316815291166020820152f35b34611c96576080366003190112611c96576120fa613bc2565b612102613bd8565b6064359190604435906001600160401b038411611c965761212a610141943690600401613cdf565b92612136838383613f47565b33614290565b34611c96576020366003190112611c9657612155613bee565b61215d613d8d565b60ff8019601154169115151617601155600080f35b34611c96576040366003190112611c965761218b613bc2565b60243590811515809203611c96576001600160a01b03169081156121fe57336000526005602052604060002082600052602052604060002060ff1981541660ff83161790556040519081527f17307eab39ab6107e8899845ad3d59bd9653f200f220920489ca2b5937696c3160203392a3005b604051630b61174360e31b815260048101839052602490fd5b34611c96576000366003190112611c96576040516000906001805461223b81613df2565b808452908281169081156122b45750600114612276575b6120af8361226281870382613ca1565b604051918291602083526020830190613b9d565b92508060005260209283600020916000925b8284106122a15750505081019091019061226281612252565b8054858501870152928501928101612288565b6120af955061226293506020915091849260ff191682840152151560051b8201019350612252565b34611c96576000366003190112611c9657600d546040516001600160a01b039091168152602090f35b34611c96576000366003190112611c965761231e613d8d565b600080808060018060a01b03600d5416479082821561234c575bf11561234057005b6040513d6000823e3d90fd5b506108fc612338565b34611c96576040366003190112611c965760043560ff81168103611c9657602435906001600160801b0382168203611c96576120af6123ae610b366123a8610b366123df966123a2613d8d565b866145ce565b9361450a565b6123fb6123bc6012546158e7565b6123ed6123ca6010546158e7565b93604051978897608089526080890190613b9d565b908782036020890152613b9d565b908582036040870152613b9d565b908382036060850152613b9d565b34611c96576000366003190112611c9657602080546040516001600160801b039091168152f35b34611c96576000366003190112611c9657612449613d8d565b600d80546001600160a01b031981169091556000906001600160a01b0316600080516020615c288339815191528280a3005b34611c96576020366003190112611c9657602061249e612499613bc2565b613db9565b604051908152f35b34611c96576020366003190112611c965760206124c46004356141ef565b6040516001600160a01b039091168152f35b34611c96576000366003190112611c96576124ef613d8d565b600e546124fb81613d26565b906125096040519283613ca1565b808252601f1961251882613d26565b0160005b8181106126f457505060005b81811061260c5760408051602080825285518183018190528187019383019160005b8281106125575784840385f35b909192826101806001928851848060801b038082511683528085830151168584015263ffffffff80604084015116604085015260609081840151169084015261ffff60808181850151169085015260a08181850151169085015260c08181850151169085015260e08301511660e084015261010060ff8184015116908401526101209081830151169083015261014080820151151590830152610160809101511515908201520196019101949291909461254a565b61261581614245565b60018060a01b0391549060031b1c166000526020906019825260406000206040519061264082613c4f565b805460018060801b03948582168452608091821c8185015260019586840154809263ffffffff8083166040890152826060921c168188015261ffff918291828260401c16878a0152828260501c1660a08a01521c1660c08701528260701c1660e0860152600260ff94858094861c16610100880152015492839182166101208701521c16151561014084015260881c1615156101608201526126e282866143e3565b526126ed81856143e3565b5001612528565b60209060405161270381613c4f565b6000815282600081830152600060408301526000606083015260006080830152600060a0830152600060c0830152600060e0830152600061010083015260006101208301526000610140830152600061016083015282870101520161251c565b34611c96576020366003190112611c965760043560085481101561279a5761278c60209161422a565b90546040519160031b1c8152f35b6044906040519063295f44f760e21b8252600060048301526024820152fd5b34611c96576101416127ca36613d3d565b90604051926127d884613c86565b60008452612136838383613f47565b34611c96576020366003190112611c9657612800613bc2565b612808613d8d565b6001600160a01b0316801561285057604080519081016001600160401b03811191111761283a57607d60a21b17600b55005b634e487b7160e01b600052604160045260246000fd5b604051635b6cc80560e11b815260006004820152602490fd5b34611c96576000366003190112611c9657612882613d8d565b6120af612262476158e7565b34611c96576040366003190112611c96576128a7613bc2565b602435906128b481613db9565b8210156128e75760018060a01b031660005260066020526040600020906000526020526020604060002054604051908152f35b61290360405192839263295f44f760e21b845260048401613d72565b0390fd5b34611c96576040366003190112611c96576004356000908152600c60205260409020546001600160a01b038082169160a01c90821561296c575b506127109061295b906001600160601b03166024356143b0565b04906120af60405192839283613d72565b600b54908116925060a01c905061295b612941565b34611c965761014161299236613d3d565b91613f47565b34611c96576000366003190112611c965760006101006040516129ba81613c33565b8281528260208201528260408201528260608201528260808201528260a08201528260c08201528260e082015201526129f1613d8d565b610120604051612a0081613c33565b601a549060018060401b038216815260018060801b038260401c1660208201528160c01c604082015263ffffffff601b5460018060801b038116606084015260801c166080820152601c5460018060801b03811660a083015260ff8160801c1660c083015260018060401b039060881c1660e082015260018060801b03601d54166101008201526040519160018060401b0316825260018060801b03602082015116602083015260018060401b03604082015116604083015260018060801b03606082015116606083015263ffffffff608082015116608083015260018060801b0360a08201511660a083015260ff60c08201511660c083015260018060401b0360e08201511660e083015261010060018060801b0391015116610100820152f35b34611c96576000366003190112611c9657604051612b3f81613c18565b6060908181528160c060209260008482015260006040820152600083820152600060808201528260a08201520152612b75613d8d565b604051612b8181613c18565b604051600f5490600081612b9484613df2565b91828252600194878682169182600014612d59575050600114612d18575b612bbe92500382613ca1565b825260105490838301918252601154604084019560ff82161515875260ff8186019260081c16825260125496608086019788526040519360009060135490612c0582613df2565b80885291818116908115612cfa5750600114612cc0575b5050612caf93859360e09a93612c3b6120af9a999860ff950387613ca1565b60a08901958652612c7f60405199612c5d8b612c5681613e2c565b038c613ca1565b60c081019a8b526040519d8d8f9e928f938452519201526101008d0190613b9d565b975160408c0152511515908a0152511660808801525160a08701525191601f1992838783030160c0880152613b9d565b9151908483030160e0850152613b9d565b9150601360005288600020916000925b828410612ce75750505084018701836120af612c1c565b80548885018c0152928a01928101612cd0565b60ff19168b8901525050151560051b850188019050836120af612c1c565b5050600f600052818580600020856000915b858310612d40575050612bbe9350820101612bb2565b8091929450548385880101520191018690858593612d2a565b60ff191684820152612bbe94151560051b8401019150612bb29050565b34611c96576000366003190112611c96576020600854604051908152f35b34611c96576020366003190112611c9657612dad613d8d565b6120af612262610b36600435614683565b34611c9657610100366003190112611c9657612dd8613bee565b6024356001600160401b038111611c9657612df7903690600401613cdf565b60443591906001600160801b03908184168403611c96576064356001600160401b0381168103611c96576084356001600160401b038111611c9657612e40903690600401613cdf565b60a4356001600160401b038111611c9657612e5f903690600401613cdf565b9160c435938585168503611c96576001600160401b0360e43511611c965736602360e435011215611c965760e4356004013597612e9b89613d26565b98612ea96040519a8b613ca1565b808a5260208a01903660248260051b60e435010111611c9657602460e43501915b60248260051b60e435010183106138c657505050612ee6613d8d565b81516001600160401b03811161283a578792612f03600f54613df2565b601f8111613877575b50602090601f83116001146138065760009190836137fb575b50508160011b916000199060031b1c191617600f555b166010556001600160401b0390811660125581519190821161283a578190612f64601354613df2565b601f81116137be575b50602090601f83116001146137465760009261373b575b50508160011b916000199060031b1c1916176013555b8051906001600160401b03821161283a578190612fb8601454613df2565b601f81116136f3575b50602090601f831160011461367f57600092613674575b50508160011b916000199060031b1c1916176014555b1660018060801b03196017541617601755156135b2575b60005b815181101561353e5761301b81836143e3565b516018908154600160401b81101561283a57600181018084558110156131dc5761304d926000526020600020016152e4565b61305781836143e3565b516040519161306583613c6b565b600483526020368185013760005b600481106135125750815160031981019081116110295761309390614a21565b9360045b83518110156130dc576001600160f81b03196130b38286614b90565b511690806003198101116110295760019160001a6130d5600319830189614b90565b5301613097565b5093909291506130ec8151614a21565b9360005b825181101561313c57613137906001600160f81b0319806131118387614b90565b5116906131216003841688614b90565b51161860001a6131318289614b90565b536152d5565b6130f0565b50604051909490925090506001600160401b0360a083019081119083111761283a5760a0820160405260a036833760009360005b8251811080613505575b156131f257601f60fa1b6001600160f81b03196131978386614b90565b5116146131ad575b6131a8906152d5565b613170565b94600560ff821610156131dc5785611fe08260051b1685015260ff808216146110295760ff166001019461319f565b634e487b7160e01b600052603260045260246000fd5b5082519450919061320285614a21565b9460005b8181106134da5750506000805b8651821015613261576001600160401b03908116600a029081169081036110295761325960019160ff613252613249868c614b90565b5160f81c615407565b16906144f1565b910190613213565b9294919395505083519160018301809311611029576132876020860193845190866153ab565b9251600181018111611029576132af6132aa6040880192600184519101886153ab565b61541a565b905160018101809111611029576132d06132aa6060890192835190896153ab565b9051600181018091116110295760808801516132ec91886153ab565b9560009760009860009a8951156131dc5760208a01516001600160f81b031916602d60f81b146134ce575b99905b895182101561337e5761332d828b614b90565b5160f81c90600a600791820b029182820b9283036110295761335060ff91615407565b16900b0160016001603f1b03811360016001603f1b03198212176110295761337890916152d5565b9061331a565b96985050909192939597986134b2575b6080015190600182018211611029576133b1918160016132aa93519201906153ab565b90604051946133bf86613bfd565b60018060401b0316855260208501968752604085019361ffff8094168552836060870192168252608086019060070b81528360a0870193168352601e8054600160401b81101561283a576134189160018201905561440a565b96909661349c575186546001600160401b0319166001600160401b0391909116178655965161349797613492969091859160029161345990600183016152e4565b0195511663ffff00008654935160101b16915160201b600160201b600160601b03169260018060601b03191617171783555116906148af565b6152d5565b613008565b634e487b7160e01b600052600060045260246000fd5b9360070b60016001603f1b03198114611029576000039361338e565b60019b508b9a50613317565b613500906001600160f81b03196134f18286614b90565b511660001a613131828a614b90565b613206565b50600560ff87161061317a565b6001906001600160f81b03196135288286614b90565b511660001a6135378287614b90565b5301613073565b601e5480156131dc57601e600052600080516020615c08833981519152546001600160401b0316601281905590600510156131dc57601e6000527f50bb669a95c7b50b7e8a6f09454034b2b14cf2b85c730dca9a539ca82cb6e35f546135ad91906001600160401b03166143b0565b601055005b601e546000601e558061361f575b506018546000601855806135d5575b50613005565b60186000527fb13d2d76d1f4b7be834882e410b3e3a8afaf69f83600ae24db354391d2378d2e908101905b81811061360d57506135cf565b8061361960019261474c565b01613600565b600390808202908282040361102957601e600052600080516020615c08833981519152908101905b8181106136555750506135c0565b8060008492556136676001820161474c565b6000600282015501613647565b015190508680612fd8565b60146000908152600080516020615c688339815191529350601f198516905b8181106136db57509084600195949392106136c2575b505050811b01601455612fee565b015160001960f88460031b161c191690558680806136b4565b9293602060018192878601518155019501930161369e565b601460005261372b90600080516020615c68833981519152601f850160051c81019160208610613731575b601f0160051c0190614735565b87612fc1565b909150819061371e565b015190508780612f84565b601360009081529350600080516020615be883398151915291905b601f19841685106137a3576001945083601f1981161061378a575b505050811b01601355612f9a565b015160001960f88460031b161c1916905587808061377c565b81810151835560209485019460019093019290910190613761565b60136000526137f590600080516020615be8833981519152601f850160051c8101916020861061373157601f0160051c0190614735565b88612f6d565b015190508b80612f25565b93929190600f60005260206000209060005b601f198416811061385c5750600193949583601f19811610613843575b505050811b01600f55612f3b565b015160001960f88460031b161c191690558b8080613835565b8682015183558b955060019092019160209182019101613818565b600f6000526138c0907f8d1108e10bcb7c27dddfc02ed9d693a074039d026cf4ea4240b40f7d581ac802601f850160051c8101916020861061373157601f0160051c0190614735565b8b612f0c565b6001600160401b03833511611c96576020806024926138ec3685883560e4350101613cdf565b8152019301929050612eca565b34611c96576040366003190112611c9657613912613bc2565b60243561391e816141ef565b331515806139cd575b806139a0575b613988576001600160a01b039283169282918491167f8c5be1e5ebec7d5bd14f71427d1e84f3dd0314c0f7b2291e5b200ac8c7c3b925600080a4600090815260046020526040902080546001600160a01b0319169091179055005b60405163a9fbf51f60e01b8152336004820152602490fd5b5060018060a01b038116600052600560205260406000203360005260205260ff604060002054161561392d565b506001600160a01b038116331415613927565b34611c96576020366003190112611c96576004356139fd816141ef565b506000526004602052602060018060a01b0360406000205416604051908152f35b34611c96576000366003190112611c9657604051600090600054613a4181613df2565b8083526001918083169081156122b45750600114613a69576120af8361226281870382613ca1565b600080805260209450917f290decd9548b62a8d60345a988386fc84ba6bc95484008f6362f93160ef3e5635b828410613aae5750505081019091019061226281612252565b8054858501870152928501928101613a95565b34611c96576020366003190112611c96576004359063ffffffff60e01b8216809203611c965760209163152a902d60e11b8114908115613b03575b5015158152f35b632483248360e11b811491508115613b1d575b5083613afc565b63780e9d6360e01b811491508115613b37575b5083613b16565b6380ac58cd60e01b811491508115613b69575b8115613b58575b5083613b30565b6301ffc9a760e01b14905083613b51565b635b5e139f60e01b81149150613b4a565b60005b838110613b8d5750506000910152565b8181015183820152602001613b7d565b90602091613bb681518092818552858086019101613b7a565b601f01601f1916010190565b600435906001600160a01b0382168203611c9657565b602435906001600160a01b0382168203611c9657565b600435908115158203611c9657565b60c081019081106001600160401b0382111761283a57604052565b60e081019081106001600160401b0382111761283a57604052565b61012081019081106001600160401b0382111761283a57604052565b61018081019081106001600160401b0382111761283a57604052565b604081019081106001600160401b0382111761283a57604052565b602081019081106001600160401b0382111761283a57604052565b601f909101601f19168101906001600160401b0382119082101761283a57604052565b6001600160401b03811161283a57601f01601f191660200190565b81601f82011215611c9657803590613cf682613cc4565b92613d046040519485613ca1565b82845260208383010111611c9657816000926020809301838601378301015290565b6001600160401b03811161283a5760051b60200190565b6060906003190112611c96576001600160a01b03906004358281168103611c9657916024359081168103611c96579060443590565b6001600160a01b039091168152602081019190915260400190565b600d546001600160a01b03163303613da157565b60405163118cdaa760e01b8152336004820152602490fd5b6001600160a01b03168015613dd957600052600360205260406000205490565b6040516322718ad960e21b815260006004820152602490fd5b90600182811c92168015613e22575b6020831014613e0c57565b634e487b7160e01b600052602260045260246000fd5b91607f1691613e01565b60145460009291613e3c82613df2565b908181526001928381169081600014613e965750600114613e5c57505050565b9092935060146000526020928360002092846000945b838610613e825750505050010190565b805485870183015294019385908201613e72565b91935050602093945060ff191683830152151560051b010190565b9060009291805491613ec283613df2565b918282526001938481169081600014613f245750600114613ee4575b50505050565b90919394506000526020928360002092846000945b838610613f10575050505001019038808080613ede565b805485870183015294019385908201613ef9565b9294505050602093945060ff191683830152151560051b01019038808080613ede565b6001600160a01b03828116939184156141b85760009483865260209560028752604096848883205416963315158061412c575b508715801561410c575b84845260038352898420805460010190558784526002835289842080546001600160a01b0319168617905587858a600080516020615c488339815191528780a4156140a05760085487845260098352898420819055600160401b81101561408c5787613ff9826001614012940160085561422a565b90919082549060031b91821b91600019901b1916179055565b83880361404e575b50505050169283830361402d5750505050565b6064945051926364283d7b60e01b8452600484015260248301526044820152fd5b61405790613db9565b6000198101939084116118375782916007918a945260068152838320858452815287848420558783525220553880808061401a565b634e487b7160e01b84526041600452602484fd5b878414614012576140b088613db9565b878452600783528984205490898552600684528a8520918181036140ea575b5088855260078452848b812055845282528289812055614012565b8186528285528b862054818752808d8820558652600785528b862055386140cf565b614115886141d1565b888452600383528984208054600019019055613f84565b80614177575b1561413d5738613f7a565b88878961415a576024915190637e27328960e01b82526004820152fd5b905163177e802f60e01b8152908190612903903360048401613d72565b50338814801561419c575b8061413257508683526004825233868a8520541614614132565b5087835260058252888320338452825260ff8984205416614182565b604051633250574960e11b815260006004820152602490fd5b600090815260046020526040902080546001600160a01b0319169055565b6000818152600260205260409020546001600160a01b0316908115614212575090565b60249060405190637e27328960e01b82526004820152fd5b6008548110156131dc57600860005260206000200190600090565b600e548110156131dc57600e60005260206000200190600090565b3d1561428b573d9061427182613cc4565b9161427f6040519384613ca1565b82523d6000602084013e565b606090565b9293823b6142a0575b5050505050565b6142e49060018060a01b038094169560405194859481630a85bd0160e11b988988521660048701521660248501526044840152608060648401526084830190613b9d565b03906020816000938185885af190829082614364575b50506143325782614309614260565b805191908261432b57604051633250574960e11b815260048101839052602490fd5b9050602001fd5b6001600160e01b0319160361434c57503880808080614299565b60249060405190633250574960e11b82526004820152fd5b909192506020813d82116143a8575b8161438060209383613ca1565b810103126143a45751906001600160e01b03198216820361014357509038806142fa565b5080fd5b3d9150614373565b8181029291811591840414171561102957565b81156143cd570490565b634e487b7160e01b600052601260045260246000fd5b80518210156131dc5760209160051b010190565b61ffff8091169081146110295760010190565b601e548110156131dc57601e6000526003602060002091020190600090565b61ffff908116600019019190821161102957565b601e54600091825b61ffff808516908482101561448f57600261445f8761440a565b50015460601c160361447b5750614475836143f7565b92614445565b92509061ffff61448c915b16614429565b90565b505092509061ffff61448c91614486565b60ff60059116029060ff821691820361102957565b60ff60019116019060ff821161102957565b60ff60029116019060ff821161102957565b6001600160401b039081166001019190821161102957565b6001600160401b03918216908216019190821161102957565b600160ff821691821560001461458a57505060056001915b1080614573575b15611c965761455b6145698261454161448c9461440a565b50546001600160401b0393908416918491614560916144c7565b61440a565b505416906144f1565b16601254906143b0565b5061457d816144c7565b60ff601e54911610614529565b61459560ff916144a0565b160160ff81116110295760059091614522565b6001600160801b03918216908216019190821161102957565b9190820180921161102957565b600260ff821691821560001461464a57505060025b6005821080614633575b15611c965761460861455b614569836145416103e89561440a565b926001600160801b0392839161461e91906145a8565b16029081169081036110295761448c916145c1565b5061463d816144c7565b60ff601e549116106145ed565b61465560ff916144a0565b160160ff8111156145e357634e487b7160e01b600052601160045260246000fd5b9190820391821161102957565b9060026146926010549361440a565b50015460201c60070b6012549283820291600160ff1b90600095828114878312166107a35781850514901517156107df578483126146d6575061448c9293506145c1565b829192146118535761448c92930390614676565b90600163ffffffff8093160191821161102957565b805463ffffffff60201b191660209290921b63ffffffff60201b16919091179055565b90600161ffff8093160191821161102957565b818110614740575050565b60008155600101614735565b6147568154613df2565b9081614760575050565b81601f600093116001146147735750555b565b908083918252614792601f60208420940160051c840160018501614735565b5555565b9061479f61443d565b91905b601e805461ffff6147b284614722565b168111156148175780156148025760001901906147ce8261440a565b6147ee5760026000918281556147e66001820161474c565b0155556147a2565b60246000634e487b7160e01b815280600452fd5b60246000634e487b7160e01b81526031600452fd5b50509192909261ffff808416911681149182614843575b505060009060001461483e575090565b905090565b600491925061485360ff916144a0565b160160ff81116110295761486860ff916144b5565b1610388061482e565b805461ffff60401b191660409290921b61ffff60401b16919091179055565b805461ffff60501b191660509290921b61ffff60501b16919091179055565b805461ffff60601b191660609290921b61ffff60601b16919091179055565b604051906148db82613c6b565b601e82527f476f6f64204c75636b20616e642067657420616c6c2062616c616e63652100006020830152565b33600090815260196020526040812060018101805460028301805461ffff60801b1916600160881b1790556001600160881b0319166c010064006400000001000000011790556001600160801b039283169055600e54909190600160401b811015614a0d5760029161498182600160409401600e55614245565b81549060031b9033821b9160018060a01b03901b1916179055600e541692338152601960205220019060018060801b03198254161790556147716040516149c781613c6b565b600881526757656c636f6d652160c01b60208201526149e46148ce565b604051916149f183613c6b565b600983526877656c636f6d655f3160b81b602084015233614c88565b634e487b7160e01b83526041600452602483fd5b90614a2b82613cc4565b614a386040519182613ca1565b8281528092614a49601f1991613cc4565b0190602036910137565b6000908072184f03e93ff9f4daa797ed6e38ed64bf6a1f0160401b80821015614b82575b506904ee2d6d415b85acef8160201b80831015614b73575b50662386f26fc1000080831015614b64575b506305f5e10080831015614b55575b5061271080831015614b46575b506064821015614b36575b600a80921015614b2c575b600190816021614ae4828701614a21565b95860101905b614af6575b5050505090565b600019019083906f181899199a1a9b1b9c1cb0b131b232b360811b8282061a835304918215614b2757919082614aea565b614aef565b9160010191614ad3565b9190606460029104910191614ac8565b60049193920491019138614abd565b60089193920491019138614ab0565b60109193920491019138614aa1565b60209193920491019138614a8f565b604093508104915038614a77565b9081518110156131dc570160200190565b8015611029576000190190565b60405190614bbb82613c6b565b60028252612d2560f01b6020830152565b908152602081019190915260609190911b6001600160601b031916604082015260540190565b81156143cd570690565b6001600160801b039081169081146110295760010190565b60135460009291614c2482613df2565b91600190818116908115614c755750600114614c3f57505050565b9091929350601360005260209081600020906000915b858310614c6457505050500190565b805485840152918301918101614c55565b60ff191683525050811515909102019150565b60208054614771956001600160801b0380831696611f6e9692959093614ccb9289929190614cb584614bfc565b6001600160801b03199092169116178655614d5e565b611f69600460405195614ce887614ce181613e2c565b0388613ca1565b614d238660405187614d038299518092858086019101613b7a565b8a51908201614d1782858301868f01613b7a565b01038088520186613ca1565b604051958691614d44614d37838501614c14565b9182815194859201613b7a565b01632e706e6760e01b815203601b19810186520184613ca1565b6040805192614d6c84613c86565b60008085526001600160a01b0394848616948515615021578383526020966002885285842054168015908782159283615001575b81875260038b528887208054600101905587875260028b5288872080546001600160a01b03191683179055878284600080516020615c488339815191528a80a415614f94575060085486865260098a52878620819055600160401b811015614f805790614e1887613ff98460018d960160085561422a565b03614f47575b614f2f573b614e30575b505050505050565b85614e6d9185969798955180938192630a85bd0160e11b978884523360048501528760248501526044840152608060648401526084830190613b9d565b0381858a5af190829082614eeb575b5050614eb357505050614e8d614260565b80519384614ead578251633250574960e11b815260048101859052602490fd5b84925001fd5b9194506001600160e01b031990911603614ed4575050388080808080614e28565b602492505190633250574960e11b82526004820152fd5b909192508781813d8311614f28575b614f048183613ca1565b810103126143a45751906001600160e01b0319821682036101435750903880614e7c565b503d614efa565b84516339e3563760e11b815260048101849052602490fd5b614f5082613db9565b60001981019081116107df5787855260068952868520818652895285878620558585526007895286852055614e1e565b634e487b7160e01b86526041600452602486fd5b90808214614e1857614fa581613db9565b87875260078b52888720549082885260068c5289882091818103614fdf575b5088885260078c52878a81205587528a528588812055614e18565b818952828d528a892054818a52808c8b2055895260078d528a89205538614fc4565b61500a886141d1565b82875260038b528887208054600019019055614da0565b8451633250574960e11b815260048101849052602490fd5b9190601f811161504857505050565b614771926000526020600020906020601f840160051c8301931061373157601f0160051c0190614735565b6000818152600a60209081526040822084519495949193929091906001600160401b038211615170576150b0826150aa8554613df2565b85615039565b8490601f83116001146150fe5790600080516020615c888339815191529697836150f3575b50508160011b916000199060031b1c19161790555b604051908152a1565b0151905038806150d5565b9196601f198816848452868420935b8181106151595750916001939189600080516020615c88833981519152999a9410615140575b505050811b0190556150ea565b015160001960f88460031b161c19169055388080615133565b92938760018192878601518155019501930161510d565b634e487b7160e01b81526041600452602490fd5b61518d346158e7565b9060105491601e54156131dc57601e60009081527f50bb669a95c7b50b7e8a6f09454034b2b14cf2b85c730dca9a539ca82cb6e3525460125460209190911c60070b818102959291600160ff1b9190838212838214166118535781880514901517156110a9578186126152b9575050610b36614771939461520d926145c1565b615293606060405180937f6261636b3a302e3065204c6f7720617474656d70742c207468616e6b7320666f602083015274039103237b730ba34b7b717102a393c9039b2b7321605d1b604083015261526f815180926020605586019101613b7a565b81016a32903337b91031b63ab29760a91b6055820152036040810184520182613ca1565b604051916152a083613c6b565b60068352657468616e6b7360d01b602084015233614c88565b859195146107df5761520d91610b369161477195960390614676565b60001981146110295760010190565b81519192916001600160401b03811161283a5761530b816153058454613df2565b84615039565b602080601f831160011461534757508192939460009261533c575b50508160011b916000199060031b1c1916179055565b015190503880615326565b90601f198316958460005282600020926000905b8882106153935750508360019596971061537a575b505050811b019055565b015160001960f88460031b161c19169055388080615370565b8060018596829496860151815501950193019061535b565b92916153bf6153ba8383614676565b614a21565b91805b8281106153d157509193505050565b615402906001600160f81b03196153e88289614b90565b51166131316153f78584614676565b9160001a9187614b90565b6153c2565b60ff602f199116019060ff821161102957565b906000809283915b815183101561546157600a61ffff809216028181169081036107cb5760ff61544d6132498686614b90565b16019081116107df57600190920191615422565b93505050565b9160f46156659194929461547a42614a53565b6040968751958693602098607b60f81b8a87015268113730b6b2911d101160b91b60218701526154b3815180928c602a8a019101613b7a565b85019261088b60f21b9384602a8201526f113232b9b1b934b83a34b7b7111d101160811b602c8201526154ef825180938d603c85019101613b7a565b0183603c820152691134b6b0b3b2911d101160b11b603e82015261551c825180938c604885019101613b7a565b01826048820152711132bc3a32b93730b62fb634b735911d101160711b604a820152615551825180938b605c85019101613b7a565b01605c8101919091526e2261747472696275746573223a205b60881b605e8201527f7b202274726169745f74797065223a202245646974696f6e222c202276616c75606d8201526f19488e880891d95b995cda5cc8881f4b60821b608d8201527f7b202274726169745f74797065223a202252616e6b222c202276616c7565223a609d8201526a0808915b1a5d1948881f4b60aa1b60bd8201527f7b202274726169745f74797065223a20224d696e746564204174222c2022766160c882015266363ab2911d101160c91b60e882015281519161563690839060ef8401908a01613b7a565b016222207d60e81b60ef820152605d60f81b60f2820152607d60f81b60f38201520360d4810184520182613ca1565b825160608101939092906001600160401b0385118486101761283a576156e361448c94603d9461571c9784528382527f4142434445464748494a4b4c4d4e4f505152535455565758595a616263646566858301527f6768696a6b6c6d6e6f707172737475767778797a303132333435363738392b2f8483015261572c565b905194827f646174613a6170706c69636174696f6e2f6a736f6e3b6261736536342c000000879485015282519283918686019101613b7a565b810103601d810184520182613ca1565b80511561580f578051600291828201809211611029576003918290046001600160fe1b038116810361102957615765908495941b614a21565b936020850193829183518401906020820192835194600085525b8381106157be5750505050525106806001146157ab576002146157a0575090565b603d90600019015390565b50603d9081600019820153600119015390565b87600491999293949901918251600190603f9082828260121c16880101518453828282600c1c16880101518385015382828260061c168801015188850153168501015189820153019792919061577f565b505060405161581d81613c86565b6000815290565b602061448c9160405193816158428693518092868087019101613b7a565b8201610b7b82518093868085019101613b7a565b90602061586561448c92614a53565b9260405193816158428693518092868087019101613b7a565b90156158bf5761448c602060405161589581613c6b565b60048152637472756560e01b82820152925b60405193816158428693518092868087019101613b7a565b61448c60206040516158d081613c6b565b600581526466616c736560d81b82820152926158a7565b6158fd670de0b6b3a76400008083069204615a7c565b908015615a78579060405161591181613c6b565b60128152602092833681840137601290815b615a2d57505080515b801515806159e9575b156159485761594390614ba1565b61592c565b9290919280156159e35761595b81614a21565b92600090815b8381106159b957505050506159aa9261448c92602192604051958361598f8895518092858089019101613b7a565b840191601760f91b8184015283519384918785019101613b7a565b01036001810184520182613ca1565b6159de906001600160f81b03196159d08285614b90565b5116841a6131318289614b90565b615961565b50505090565b506000198101818111615a1857600360fc1b906001600160f81b031990615a109085614b90565b511614615935565b60246000634e487b7160e01b81526011600452fd5b600a6030918181068301809311615a18576000198401848111615a1857615a719360f81b6001600160f81b03191660001a90615a699087614b90565b530491614ba1565b9081615923565b5090565b8015615afc5780600081805b615ae45750615a9681614a21565b925b615aa157505090565b6000198101908111611029578091600a91603083830681018091116110295760f81b6001600160f81b03191660001a90615adb9086614b90565b53049081615a98565b9150615af1600a916152d5565b910480839291615a88565b50604051615b0981613c6b565b60018152600360fc1b602082015290565b90615b258251614a21565b91604051602081014281523360601b604083015244605483015260548252608082019180831060018060401b0384111761283a57615b6b92604052519020825190614bf2565b926000805b8351811015615bdf57615bac906001600160f81b031980615b918388614b90565b511690601760f91b8203615bb15750831a6131318286614b90565b615b70565b9050818803615bd257615bc48287614b90565b5116831a6131318286614b90565b5060786131318286614b90565b50909350505056fe66de8ffda797e3de9c05e8fc57b3bf0ec28a930d40b0d285d93c06501cf6a09050bb669a95c7b50b7e8a6f09454034b2b14cf2b85c730dca9a539ca82cb6e3508be0079c531659141344cd1fd0a4f28419497f9722a3daafe3b4186f6b6457e0ddf252ad1be2c89b69c2b068fc378daa952ba7f163c4a11628f55a4df523b3efce6d7b5282bd9a3661ae061feed1dbda4e52ab073b1f9285be6e155d9c38d4ecf8e1a15aba9398e019f0b49df1a4fde98ee17ae345cb5f6b5e2c27f5033e8ce7a26469706673582212208f7fc99974cc5e298163d2713313f09766abbf169d37de76f2bb5a1f5e143f2864736f6c63430008140033290decd9548b62a8d60345a988386fc84ba6bc95484008f6362f93160ef3e56366de8ffda797e3de9c05e8fc57b3bf0ec28a930d40b0d285d93c06501cf6a090b10e2d527612073b26eecdfd717e6a320cf44b4afac2b0732d9fcbe2b7fa0cf68d1108e10bcb7c27dddfc02ed9d693a074039d026cf4ea4240b40f7d581ac802",
  "linkReferences": {},
  "deployedLinkReferences": {}
}