{
  "_format": "hh-sol-artifact-1",
  "contractName": "KryptoRebus",
  "sourceName": "contracts/KryptoRebus.sol",
  "abi": [
    {
      "inputs": [
        {
          "internalType": "string",
          "name": "_name",
          "type": "string"
        },
        {
          "internalType": "bytes32",
          "name": "_saltHash",
          "type": "bytes32"
        },
        {
          "internalType": "bytes32",
          "name": "_jackpotHash",
          "type": "bytes32"
        },
        {
          "internalType": "uint128",
          "name": "_minWinBalance",
          "type": "uint128"
        },
        {
          "internalType": "uint64",
          "name": "_multiplyToWei",
          "type": "uint64"
        },
        {
          "internalType": "string",
          "name": "_imageHttpFolder",
          "type": "string"
        }
      ],
      "stateMutability": "nonpayable",
      "type": "constructor"
    },
    {
      "inputs": [],
      "name": "Active_false",
      "type": "error"
    },
    {
      "inputs": [],
      "name": "Amount_is_too_low_for_fee",
      "type": "error"
    },
    {
      "inputs": [],
      "name": "Clues_no_or_low_data",
      "type": "error"
    },
    {
      "inputs": [],
      "name": "Cooldown_limit",
      "type": "error"
    },
    {
      "inputs": [
        {
          "internalType": "uint256",
          "name": "numerator",
          "type": "uint256"
        },
        {
          "internalType": "uint256",
          "name": "denominator",
          "type": "uint256"
        }
      ],
      "name": "ERC2981InvalidDefaultRoyalty",
      "type": "error"
    },
    {
      "inputs": [
        {
          "internalType": "address",
          "name": "receiver",
          "type": "address"
        }
      ],
      "name": "ERC2981InvalidDefaultRoyaltyReceiver",
      "type": "error"
    },
    {
      "inputs": [
        {
          "internalType": "uint256",
          "name": "tokenId",
          "type": "uint256"
        },
        {
          "internalType": "uint256",
          "name": "numerator",
          "type": "uint256"
        },
        {
          "internalType": "uint256",
          "name": "denominator",
          "type": "uint256"
        }
      ],
      "name": "ERC2981InvalidTokenRoyalty",
      "type": "error"
    },
    {
      "inputs": [
        {
          "internalType": "uint256",
          "name": "tokenId",
          "type": "uint256"
        },
        {
          "internalType": "address",
          "name": "receiver",
          "type": "address"
        }
      ],
      "name": "ERC2981InvalidTokenRoyaltyReceiver",
      "type": "error"
    },
    {
      "inputs": [],
      "name": "ERC721EnumerableForbiddenBatchMint",
      "type": "error"
    },
    {
      "inputs": [
        {
          "internalType": "address",
          "name": "sender",
          "type": "address"
        },
        {
          "internalType": "uint256",
          "name": "tokenId",
          "type": "uint256"
        },
        {
          "internalType": "address",
          "name": "owner",
          "type": "address"
        }
      ],
      "name": "ERC721IncorrectOwner",
      "type": "error"
    },
    {
      "inputs": [
        {
          "internalType": "address",
          "name": "operator",
          "type": "address"
        },
        {
          "internalType": "uint256",
          "name": "tokenId",
          "type": "uint256"
        }
      ],
      "name": "ERC721InsufficientApproval",
      "type": "error"
    },
    {
      "inputs": [
        {
          "internalType": "address",
          "name": "approver",
          "type": "address"
        }
      ],
      "name": "ERC721InvalidApprover",
      "type": "error"
    },
    {
      "inputs": [
        {
          "internalType": "address",
          "name": "operator",
          "type": "address"
        }
      ],
      "name": "ERC721InvalidOperator",
      "type": "error"
    },
    {
      "inputs": [
        {
          "internalType": "address",
          "name": "owner",
          "type": "address"
        }
      ],
      "name": "ERC721InvalidOwner",
      "type": "error"
    },
    {
      "inputs": [
        {
          "internalType": "address",
          "name": "receiver",
          "type": "address"
        }
      ],
      "name": "ERC721InvalidReceiver",
      "type": "error"
    },
    {
      "inputs": [
        {
          "internalType": "address",
          "name": "sender",
          "type": "address"
        }
      ],
      "name": "ERC721InvalidSender",
      "type": "error"
    },
    {
      "inputs": [
        {
          "internalType": "uint256",
          "name": "tokenId",
          "type": "uint256"
        }
      ],
      "name": "ERC721NonexistentToken",
      "type": "error"
    },
    {
      "inputs": [
        {
          "internalType": "address",
          "name": "owner",
          "type": "address"
        },
        {
          "internalType": "uint256",
          "name": "index",
          "type": "uint256"
        }
      ],
      "name": "ERC721OutOfBoundsIndex",
      "type": "error"
    },
    {
      "inputs": [],
      "name": "NotAllowed",
      "type": "error"
    },
    {
      "inputs": [
        {
          "internalType": "address",
          "name": "owner",
          "type": "address"
        }
      ],
      "name": "OwnableInvalidOwner",
      "type": "error"
    },
    {
      "inputs": [
        {
          "internalType": "address",
          "name": "account",
          "type": "address"
        }
      ],
      "name": "OwnableUnauthorizedAccount",
      "type": "error"
    },
    {
      "inputs": [],
      "name": "Payment_refund_to_sender_failed",
      "type": "error"
    },
    {
      "inputs": [],
      "name": "Payment_to_owner_failed",
      "type": "error"
    },
    {
      "inputs": [],
      "name": "Payment_to_winnerr_failed",
      "type": "error"
    },
    {
      "inputs": [
        {
          "internalType": "uint256",
          "name": "value",
          "type": "uint256"
        },
        {
          "internalType": "uint256",
          "name": "length",
          "type": "uint256"
        }
      ],
      "name": "StringsInsufficientHexLength",
      "type": "error"
    },
    {
      "inputs": [],
      "name": "Winner_no_longer_play",
      "type": "error"
    },
    {
      "anonymous": false,
      "inputs": [
        {
          "indexed": true,
          "internalType": "address",
          "name": "owner",
          "type": "address"
        },
        {
          "indexed": true,
          "internalType": "address",
          "name": "approved",
          "type": "address"
        },
        {
          "indexed": true,
          "internalType": "uint256",
          "name": "tokenId",
          "type": "uint256"
        }
      ],
      "name": "Approval",
      "type": "event"
    },
    {
      "anonymous": false,
      "inputs": [
        {
          "indexed": true,
          "internalType": "address",
          "name": "owner",
          "type": "address"
        },
        {
          "indexed": true,
          "internalType": "address",
          "name": "operator",
          "type": "address"
        },
        {
          "indexed": false,
          "internalType": "bool",
          "name": "approved",
          "type": "bool"
        }
      ],
      "name": "ApprovalForAll",
      "type": "event"
    },
    {
      "anonymous": false,
      "inputs": [
        {
          "indexed": false,
          "internalType": "uint256",
          "name": "_fromTokenId",
          "type": "uint256"
        },
        {
          "indexed": false,
          "internalType": "uint256",
          "name": "_toTokenId",
          "type": "uint256"
        }
      ],
      "name": "BatchMetadataUpdate",
      "type": "event"
    },
    {
      "anonymous": false,
      "inputs": [
        {
          "indexed": false,
          "internalType": "uint256",
          "name": "_tokenId",
          "type": "uint256"
        }
      ],
      "name": "MetadataUpdate",
      "type": "event"
    },
    {
      "anonymous": false,
      "inputs": [
        {
          "indexed": true,
          "internalType": "address",
          "name": "previousOwner",
          "type": "address"
        },
        {
          "indexed": true,
          "internalType": "address",
          "name": "newOwner",
          "type": "address"
        }
      ],
      "name": "OwnershipTransferred",
      "type": "event"
    },
    {
      "anonymous": false,
      "inputs": [
        {
          "indexed": true,
          "internalType": "address",
          "name": "from",
          "type": "address"
        },
        {
          "indexed": true,
          "internalType": "address",
          "name": "to",
          "type": "address"
        },
        {
          "indexed": true,
          "internalType": "uint256",
          "name": "tokenId",
          "type": "uint256"
        }
      ],
      "name": "Transfer",
      "type": "event"
    },
    {
      "inputs": [
        {
          "internalType": "address",
          "name": "to",
          "type": "address"
        },
        {
          "internalType": "uint256",
          "name": "tokenId",
          "type": "uint256"
        }
      ],
      "name": "approve",
      "outputs": [],
      "stateMutability": "nonpayable",
      "type": "function"
    },
    {
      "inputs": [
        {
          "internalType": "address",
          "name": "owner",
          "type": "address"
        }
      ],
      "name": "balanceOf",
      "outputs": [
        {
          "internalType": "uint256",
          "name": "",
          "type": "uint256"
        }
      ],
      "stateMutability": "view",
      "type": "function"
    },
    {
      "inputs": [],
      "name": "getAllPlayers",
      "outputs": [
        {
          "internalType": "address[]",
          "name": "",
          "type": "address[]"
        }
      ],
      "stateMutability": "view",
      "type": "function"
    },
    {
      "inputs": [],
      "name": "getAllUsersData",
      "outputs": [
        {
          "components": [
            {
              "internalType": "uint64",
              "name": "attemptCounter",
              "type": "uint64"
            },
            {
              "internalType": "uint128",
              "name": "attemptSum",
              "type": "uint128"
            },
            {
              "internalType": "uint64",
              "name": "refundCounter",
              "type": "uint64"
            },
            {
              "internalType": "uint128",
              "name": "refundSum",
              "type": "uint128"
            },
            {
              "internalType": "uint32",
              "name": "winCounter",
              "type": "uint32"
            },
            {
              "internalType": "uint128",
              "name": "winSum",
              "type": "uint128"
            },
            {
              "internalType": "uint8",
              "name": "feeCounter",
              "type": "uint8"
            },
            {
              "internalType": "uint64",
              "name": "feeSumPartial",
              "type": "uint64"
            },
            {
              "internalType": "uint128",
              "name": "feeSum",
              "type": "uint128"
            }
          ],
          "internalType": "struct AllUsersData",
          "name": "data",
          "type": "tuple"
        }
      ],
      "stateMutability": "view",
      "type": "function"
    },
    {
      "inputs": [
        {
          "internalType": "uint256",
          "name": "tokenId",
          "type": "uint256"
        }
      ],
      "name": "getApproved",
      "outputs": [
        {
          "internalType": "address",
          "name": "",
          "type": "address"
        }
      ],
      "stateMutability": "view",
      "type": "function"
    },
    {
      "inputs": [],
      "name": "getBalanceInEth",
      "outputs": [
        {
          "internalType": "string",
          "name": "",
          "type": "string"
        }
      ],
      "stateMutability": "view",
      "type": "function"
    },
    {
      "inputs": [],
      "name": "getClueIntegrity",
      "outputs": [
        {
          "internalType": "uint16",
          "name": "cluesOK",
          "type": "uint16"
        },
        {
          "internalType": "uint16",
          "name": "",
          "type": "uint16"
        }
      ],
      "stateMutability": "view",
      "type": "function"
    },
    {
      "inputs": [
        {
          "internalType": "uint256",
          "name": "index",
          "type": "uint256"
        }
      ],
      "name": "getCluePriceInEth",
      "outputs": [
        {
          "internalType": "string",
          "name": "",
          "type": "string"
        }
      ],
      "stateMutability": "view",
      "type": "function"
    },
    {
      "inputs": [
        {
          "internalType": "uint8",
          "name": "varianta",
          "type": "uint8"
        },
        {
          "internalType": "uint128",
          "name": "userIndex",
          "type": "uint128"
        }
      ],
      "name": "getJackpotWinBalanceInEth",
      "outputs": [
        {
          "internalType": "string",
          "name": "",
          "type": "string"
        },
        {
          "internalType": "string",
          "name": "",
          "type": "string"
        },
        {
          "internalType": "string",
          "name": "",
          "type": "string"
        },
        {
          "internalType": "string",
          "name": "",
          "type": "string"
        }
      ],
      "stateMutability": "view",
      "type": "function"
    },
    {
      "inputs": [],
      "name": "getRebusData",
      "outputs": [
        {
          "components": [
            {
              "internalType": "string",
              "name": "name",
              "type": "string"
            },
            {
              "internalType": "uint256",
              "name": "attemptMinimum",
              "type": "uint256"
            },
            {
              "internalType": "bool",
              "name": "active",
              "type": "bool"
            },
            {
              "internalType": "uint8",
              "name": "prcJackpotOfBalance",
              "type": "uint8"
            },
            {
              "internalType": "uint256",
              "name": "multiplyToWei",
              "type": "uint256"
            },
            {
              "internalType": "string",
              "name": "imageHttpFolder",
              "type": "string"
            },
            {
              "internalType": "string",
              "name": "frontHttpAdress",
              "type": "string"
            }
          ],
          "internalType": "struct RebusData",
          "name": "",
          "type": "tuple"
        }
      ],
      "stateMutability": "view",
      "type": "function"
    },
    {
      "inputs": [],
      "name": "getUserDataOfAll",
      "outputs": [
        {
          "components": [
            {
              "internalType": "uint128",
              "name": "attemptSum",
              "type": "uint128"
            },
            {
              "internalType": "uint128",
              "name": "winSum",
              "type": "uint128"
            },
            {
              "internalType": "uint32",
              "name": "attemptCounter",
              "type": "uint32"
            },
            {
              "internalType": "uint32",
              "name": "depositFeeCounter",
              "type": "uint32"
            },
            {
              "internalType": "uint16",
              "name": "returnDepositMinimum",
              "type": "uint16"
            },
            {
              "internalType": "uint16",
              "name": "returnDepositMaximum",
              "type": "uint16"
            },
            {
              "internalType": "uint16",
              "name": "depositFee",
              "type": "uint16"
            },
            {
              "internalType": "uint16",
              "name": "clueLast",
              "type": "uint16"
            },
            {
              "internalType": "uint8",
              "name": "winCounter",
              "type": "uint8"
            },
            {
              "internalType": "uint128",
              "name": "initialized",
              "type": "uint128"
            },
            {
              "internalType": "bool",
              "name": "cluesGeneratedOnly",
              "type": "bool"
            },
            {
              "internalType": "bool",
              "name": "cluesRandom",
              "type": "bool"
            }
          ],
          "internalType": "struct UserData[]",
          "name": "",
          "type": "tuple[]"
        }
      ],
      "stateMutability": "view",
      "type": "function"
    },
    {
      "inputs": [
        {
          "internalType": "address",
          "name": "owner",
          "type": "address"
        },
        {
          "internalType": "address",
          "name": "operator",
          "type": "address"
        }
      ],
      "name": "isApprovedForAll",
      "outputs": [
        {
          "internalType": "bool",
          "name": "",
          "type": "bool"
        }
      ],
      "stateMutability": "view",
      "type": "function"
    },
    {
      "inputs": [
        {
          "internalType": "string",
          "name": "_from",
          "type": "string"
        },
        {
          "internalType": "string",
          "name": "_message",
          "type": "string"
        },
        {
          "internalType": "string",
          "name": "_add",
          "type": "string"
        }
      ],
      "name": "messageToOwner",
      "outputs": [],
      "stateMutability": "payable",
      "type": "function"
    },
    {
      "inputs": [
        {
          "internalType": "address",
          "name": "_to",
          "type": "address"
        },
        {
          "internalType": "string",
          "name": "nftName",
          "type": "string"
        },
        {
          "internalType": "string",
          "name": "nftDesc",
          "type": "string"
        },
        {
          "internalType": "string",
          "name": "nftImage",
          "type": "string"
        }
      ],
      "name": "mintSimpleNFT",
      "outputs": [],
      "stateMutability": "nonpayable",
      "type": "function"
    },
    {
      "inputs": [],
      "name": "name",
      "outputs": [
        {
          "internalType": "string",
          "name": "",
          "type": "string"
        }
      ],
      "stateMutability": "view",
      "type": "function"
    },
    {
      "inputs": [
        {
          "internalType": "bool",
          "name": "_addOnly",
          "type": "bool"
        },
        {
          "internalType": "string",
          "name": "_name",
          "type": "string"
        },
        {
          "internalType": "uint128",
          "name": "_attemptMinimum",
          "type": "uint128"
        },
        {
          "internalType": "uint64",
          "name": "_multiplyToWei",
          "type": "uint64"
        },
        {
          "internalType": "uint8",
          "name": "_prcJackpotOfBalance",
          "type": "uint8"
        },
        {
          "internalType": "string",
          "name": "_imageHttpFolder",
          "type": "string"
        },
        {
          "internalType": "string",
          "name": "_frontHttpAdress",
          "type": "string"
        },
        {
          "internalType": "uint128",
          "name": "_minWinBalance",
          "type": "uint128"
        },
        {
          "internalType": "bytes[]",
          "name": "_encodedItems",
          "type": "bytes[]"
        }
      ],
      "name": "newRebusData",
      "outputs": [],
      "stateMutability": "nonpayable",
      "type": "function"
    },
    {
      "inputs": [],
      "name": "nextTokenId",
      "outputs": [
        {
          "internalType": "uint128",
          "name": "",
          "type": "uint128"
        }
      ],
      "stateMutability": "view",
      "type": "function"
    },
    {
      "inputs": [],
      "name": "owner",
      "outputs": [
        {
          "internalType": "address",
          "name": "",
          "type": "address"
        }
      ],
      "stateMutability": "view",
      "type": "function"
    },
    {
      "inputs": [
        {
          "internalType": "uint256",
          "name": "tokenId",
          "type": "uint256"
        }
      ],
      "name": "ownerOf",
      "outputs": [
        {
          "internalType": "address",
          "name": "",
          "type": "address"
        }
      ],
      "stateMutability": "view",
      "type": "function"
    },
    {
      "inputs": [],
      "name": "renounceOwnership",
      "outputs": [],
      "stateMutability": "nonpayable",
      "type": "function"
    },
    {
      "inputs": [
        {
          "internalType": "uint256",
          "name": "tokenId",
          "type": "uint256"
        },
        {
          "internalType": "uint256",
          "name": "salePrice",
          "type": "uint256"
        }
      ],
      "name": "royaltyInfo",
      "outputs": [
        {
          "internalType": "address",
          "name": "receiver",
          "type": "address"
        },
        {
          "internalType": "uint256",
          "name": "amount",
          "type": "uint256"
        }
      ],
      "stateMutability": "view",
      "type": "function"
    },
    {
      "inputs": [
        {
          "internalType": "address",
          "name": "from",
          "type": "address"
        },
        {
          "internalType": "address",
          "name": "to",
          "type": "address"
        },
        {
          "internalType": "uint256",
          "name": "tokenId",
          "type": "uint256"
        }
      ],
      "name": "safeTransferFrom",
      "outputs": [],
      "stateMutability": "nonpayable",
      "type": "function"
    },
    {
      "inputs": [
        {
          "internalType": "address",
          "name": "from",
          "type": "address"
        },
        {
          "internalType": "address",
          "name": "to",
          "type": "address"
        },
        {
          "internalType": "uint256",
          "name": "tokenId",
          "type": "uint256"
        },
        {
          "internalType": "bytes",
          "name": "data",
          "type": "bytes"
        }
      ],
      "name": "safeTransferFrom",
      "outputs": [],
      "stateMutability": "nonpayable",
      "type": "function"
    },
    {
      "inputs": [
        {
          "internalType": "bool",
          "name": "_state",
          "type": "bool"
        }
      ],
      "name": "setActive",
      "outputs": [],
      "stateMutability": "nonpayable",
      "type": "function"
    },
    {
      "inputs": [
        {
          "internalType": "address",
          "name": "operator",
          "type": "address"
        },
        {
          "internalType": "bool",
          "name": "approved",
          "type": "bool"
        }
      ],
      "name": "setApprovalForAll",
      "outputs": [],
      "stateMutability": "nonpayable",
      "type": "function"
    },
    {
      "inputs": [
        {
          "internalType": "address",
          "name": "newRecipient",
          "type": "address"
        }
      ],
      "name": "setRoyaltyRecipient",
      "outputs": [],
      "stateMutability": "nonpayable",
      "type": "function"
    },
    {
      "inputs": [
        {
          "internalType": "bytes4",
          "name": "interfaceId",
          "type": "bytes4"
        }
      ],
      "name": "supportsInterface",
      "outputs": [
        {
          "internalType": "bool",
          "name": "",
          "type": "bool"
        }
      ],
      "stateMutability": "view",
      "type": "function"
    },
    {
      "inputs": [],
      "name": "symbol",
      "outputs": [
        {
          "internalType": "string",
          "name": "",
          "type": "string"
        }
      ],
      "stateMutability": "view",
      "type": "function"
    },
    {
      "inputs": [
        {
          "internalType": "uint256",
          "name": "index",
          "type": "uint256"
        }
      ],
      "name": "tokenByIndex",
      "outputs": [
        {
          "internalType": "uint256",
          "name": "",
          "type": "uint256"
        }
      ],
      "stateMutability": "view",
      "type": "function"
    },
    {
      "inputs": [
        {
          "internalType": "address",
          "name": "owner",
          "type": "address"
        },
        {
          "internalType": "uint256",
          "name": "index",
          "type": "uint256"
        }
      ],
      "name": "tokenOfOwnerByIndex",
      "outputs": [
        {
          "internalType": "uint256",
          "name": "",
          "type": "uint256"
        }
      ],
      "stateMutability": "view",
      "type": "function"
    },
    {
      "inputs": [
        {
          "internalType": "uint256",
          "name": "tokenId",
          "type": "uint256"
        }
      ],
      "name": "tokenURI",
      "outputs": [
        {
          "internalType": "string",
          "name": "",
          "type": "string"
        }
      ],
      "stateMutability": "view",
      "type": "function"
    },
    {
      "inputs": [],
      "name": "totalSupply",
      "outputs": [
        {
          "internalType": "uint256",
          "name": "",
          "type": "uint256"
        }
      ],
      "stateMutability": "view",
      "type": "function"
    },
    {
      "inputs": [
        {
          "internalType": "address",
          "name": "from",
          "type": "address"
        },
        {
          "internalType": "address",
          "name": "to",
          "type": "address"
        },
        {
          "internalType": "uint256",
          "name": "tokenId",
          "type": "uint256"
        }
      ],
      "name": "transferFrom",
      "outputs": [],
      "stateMutability": "nonpayable",
      "type": "function"
    },
    {
      "inputs": [
        {
          "internalType": "address",
          "name": "newOwner",
          "type": "address"
        }
      ],
      "name": "transferOwnership",
      "outputs": [],
      "stateMutability": "nonpayable",
      "type": "function"
    },
    {
      "inputs": [],
      "name": "withdrawAll",
      "outputs": [],
      "stateMutability": "nonpayable",
      "type": "function"
    },
    {
      "inputs": [],
      "name": "withdrawFees",
      "outputs": [],
      "stateMutability": "nonpayable",
      "type": "function"
    },
    {
      "stateMutability": "payable",
      "type": "receive"
    }
  ],
  "bytecode": "0x60806040523462000af957620067ac803803806200001d8162000b1e565b928339810160c08282031262000af95781516001600160401b03811162000af957816200004c91840162000b44565b6020830151604084015160608501519491939092916001600160801b038616860362000af95760808101516001600160401b038116929083900362000af95760a08201516001600160401b03811162000af957620000ab920162000b44565b90620000b662000afe565b600e81526d12dc9e5c1d1bd499589d5cd3919560921b6020820152620000db62000afe565b6005815264524542555360d81b6020820152815190916001600160401b038211620004f45781906200010f60005462000bb6565b601f811162000ab8575b50602090601f831160011462000a405760009262000a34575b50508160011b916000199060031b1c1916176000555b8051906001600160401b038211620004f45781906200016960015462000bb6565b601f8111620009f2575b50602090601f831160011462000978576000926200096c575b50508160011b916000199060031b1c1916176001555b33156200095357600d8054336001600160a01b0319821681179092556001600160a01b03167f8be0079c531659141344cd1fd0a4f28419497f9722a3daafe3b4186f6b6457e0600080a3602080546001600160801b03191690556040519260e084016001600160401b03811185821017620004f4576040528352600160208401526001604084015260636060840152608083015260a08201526200024562000afe565b601e81527f68747470733a2f2f6b727970746f72656275732e6769746875622e696f2f0000602082015260c082015280518051906001600160401b038211620004f457819062000297600f5462000bb6565b601f811162000911575b50602090601f8311600114620008935760009262000887575b50508160011b916000199060031b1c191617600f555b60208101516010556040810151151560115460ff61ff00606085015160081b1692169061ffff19161717601155608081015160125560a081015180519060018060401b038211620004f4576200032860135462000bb6565b601f811162000845575b50602090601f8311600114620007c75760c093929160009183620007bb575b50508160011b916000199060031b1c1916176013555b015180519093906001600160401b038111620004f4576200038a60145462000bb6565b601f811162000768575b50602094601f8211600114620006fb57948192939495600092620006ef575b50508160011b916000199060031b1c1916176014555b60405160208101939092906001600160401b03851184861017620004f45760408581526000855251608081016001600160401b03811182821017620004f4576040908152828252602082018490526001600160801b0394909416938101849052606001849052601555601655601780546001600160801b03191690911790555190680100000000000000008211620004f4576018548260185580831062000653575b50601860009081527fb13d2d76d1f4b7be834882e410b3e3a8afaf69f83600ae24db354391d2378d2e92915b8282106200052357600d546001600160a01b031680156200050a57604080519081016001600160401b03811182821017620004f4576101f4916020916040528381520152607d60a21b17600b55604051615b1f908162000c0d8239f35b634e487b7160e01b600052604160045260246000fd5b604051635b6cc80560e11b815260006004820152602490fd5b80518051906001600160401b038211620004f45762000543865462000bb6565b601f811162000611575b50602090601f83116001146200059e57928260019493602093869560009262000592575b5050600019600383901b1c191690841b1787555b0194019101909262000497565b01519050388062000571565b90601f198316918760005260206000209260005b818110620005f85750936020936001969387969383889510620005de575b505050811b01875562000585565b015160001960f88460031b161c19169055388080620005d0565b92936020600181928786015181550195019301620005b2565b6200064190876000526020600020601f850160051c8101916020861062000648575b601f0160051c019062000bf3565b386200054d565b909150819062000633565b60186000527fb13d2d76d1f4b7be834882e410b3e3a8afaf69f83600ae24db354391d2378d2e9081019083015b8181106200068f57506200046b565b806200069e6001925462000bb6565b80620006ad575b500162000680565b601f81118314620006c55750600081555b38620006a5565b600090828252620006e5601f60208420920160051c820185830162000bf3565b81835555620006be565b015190503880620003b3565b601f19821695601460005260206000209160005b8881106200074f5750836001959697981062000735575b505050811b01601455620003c9565b015160001960f88460031b161c1916905538808062000726565b919260206001819286850151815501940192016200070f565b6014600052620007b4907fce6d7b5282bd9a3661ae061feed1dbda4e52ab073b1f9285be6e155d9c38d4ec601f840160051c810191602085106200064857601f0160051c019062000bf3565b3862000394565b01519050388062000351565b601360009081526000805160206200674c833981519152929190601f198516905b8181106200082c575091600193918560c09796941062000812575b505050811b0160135562000367565b015160001960f88460031b161c1916905538808062000803565b92936020600181928786015181550195019301620007e8565b601360005262000880906000805160206200674c833981519152601f850160051c810191602086106200064857601f0160051c019062000bf3565b3862000332565b015190503880620002ba565b600f600090815293506000805160206200678c83398151915291905b601f1984168510620008f5576001945083601f19811610620008db575b505050811b01600f55620002d0565b015160001960f88460031b161c19169055388080620008cc565b81810151835560209485019460019093019290910190620008af565b600f6000526200094c906000805160206200678c833981519152601f850160051c810191602086106200064857601f0160051c019062000bf3565b38620002a1565b604051631e4fbdf760e01b815260006004820152602490fd5b0151905038806200018c565b600160009081526000805160206200676c8339815191529350601f198516905b818110620009d95750908460019594939210620009bf575b505050811b01600155620001a2565b015160001960f88460031b161c19169055388080620009b0565b9293602060018192878601518155019501930162000998565b600160005262000a2d906000805160206200676c833981519152601f850160051c810191602086106200064857601f0160051c019062000bf3565b3862000173565b01519050388062000132565b60008080526000805160206200672c8339815191529350601f198516905b81811062000a9f575090846001959493921062000a85575b505050811b0160005562000148565b015160001960f88460031b161c1916905538808062000a76565b9293602060018192878601518155019501930162000a5e565b6000805262000af2906000805160206200672c833981519152601f850160051c810191602086106200064857601f0160051c019062000bf3565b3862000119565b600080fd5b60408051919082016001600160401b03811183821017620004f457604052565b6040519190601f01601f191682016001600160401b03811183821017620004f457604052565b919080601f8401121562000af95782516001600160401b038111620004f45760209062000b7a601f8201601f1916830162000b1e565b9281845282828701011162000af95760005b81811062000ba257508260009394955001015290565b858101830151848201840152820162000b8c565b90600182811c9216801562000be8575b602083101462000bd257565b634e487b7160e01b600052602260045260246000fd5b91607f169162000bc6565b81811062000bff575050565b6000815560010162000bf356fe6080806040526004361015611a59575b50361561001b57600080fd5b60115460ff600091161580611a4f575b50338152601960205260408120600201546001600160801b031615611a4157338152601960205260016040822001805490600360ff8360801c1611611a3d576100879061008163ffffffff809460201c16614758565b9061476d565b338252601960205260016040832001908154906100a5818316614758565b63ffffffff19909216911617905533815260196020526040812080546001600160801b036100d7348216828416614616565b6001600160801b031990921691161790555b338152601960205261ffff61010a60ff600160408520015460801c16614842565b16158015611a31575b1561014657338152601960205261ffff61013960ff600160408520015460801c16614842565b161561014357505b005b80fd5b601a546001600160401b0361015c818316614547565b16600160401b600160c01b0361018d6001600160801b03348116906001600160401b03198616851760401c16614616565b60401b169160018060c01b0319161717601a55338152601960205260016040822001805460ff8160801c1615611a19575b5054600360ff8260801c16028060ff8116036118e05760ff63ffffffff91169160201c16116119f1575b3381526019602052606461022c61020d61ffff600160408620015460601c163461441e565b338452601960205263ffffffff600160408620015460201c169061441e565b043481116119ea575b338252601960205260408220600181018054600263ffffffff8216106119cc575b505460029091015461027a916001600160801b03919091169060801c60ff1661463c565b3414806119a5575b1561080b5750601d5461029e906001600160801b0316476146e4565b60646102ba60018060801b039260ff60115460081c169061441e565b0416906102d163ffffffff601b5460801c16614ac1565b9161030960216040518095602360f81b60208301526102f98151809260208686019101613be2565b8101036001810186520184613d59565b61031281615709565b60018060801b03331160071b60018060401b0333821c1160061b1763ffffffff33821c1160051b1761ffff33821c1160041b17906001339260ff84821c119060031c170160018060ff1b03811681036107f75760028160011b01808260011b116107e35761037f90614a8f565b928351156107cf57603060208501538351600110156107cf5760786021850153600182811b01808360011b116107bb575b60018111610765575061074757506040516103ca81613d3e565b600481526357494e2160e01b60208201526040516b02cb7ba9030b932903bb4b7160a51b6020820152610442604b82855161040c81602c840160208a01613be2565b81017f652120476f6f64206c75636b20696e20746865206e657874206c6576656c2100602c82015203602b810184520182613d59565b338652601960205261046a60ff61046481600160408b20015460801c16614523565b16614ac1565b916104a5602460405180956377696e5f60e01b60208301526104958151809260208686019101613be2565b8101036004810186520184613d59565b8680808089335af16104b56143ee565b50156107435760259261055994926104cd9233614d1c565b61050e602b60405180996a02732bb903bb4b73732b9160ad1b60208301526104fe8151809260208686019101613be2565b810103600b81018a520188613d59565b6040519381610527869351809260208087019101613be2565b8201640103a379d160dd1b602082015261054a8251809360208785019101613be2565b01036005810184520182613d59565b6040519361056685613d3e565b600b85526a34b73337afbbb4b73732b960a91b602086015260018060a01b038480808084600d541647905af161059a6143ee565b501561073f579161014195916105b393600d5416614d1c565b601b5463ffffffff60801b6105d1608083901c63ffffffff16614758565b60801b1663ffffffff60801b199190911617601b55601c54906001600160801b036105fe82828516614616565b166001600160801b031992831617601c55338352601960205260408320600101805460ff60801b61063560ff608084901c16614523565b60801b169060ff60801b1916179055338352601960205260408320916106608354928360801c614616565b60801b169060018060801b0316179055338152601960205261069260ff61046481600160408620015460801c16614523565b906106d060276040518094664c6576656c202360c81b60208301526106c08151809260208686019101613be2565b8101036007810185520183613d59565b6106fa60ff61046481600160406106e561493c565b96338152601960205220015460801c16614523565b91610739602860405180956777656c636f6d655f60c01b60208301526107298151809260208686019101613be2565b8101036008810186520184613d59565b33614d1c565b8480fd5b8680fd5b6044906040519063e22e27eb60e01b82523360048301526024820152fd5b90600f811660108110156107a7576107a291906f181899199a1a9b1b9c1cb0b131b232b360811b901a6107988488614bfe565b5360041c91614c0f565b6103b0565b634e487b7160e01b88526032600452602488fd5b634e487b7160e01b87526011600452602487fd5b634e487b7160e01b86526032600452602486fd5b634e487b7160e01b86526011600452602486fd5b634e487b7160e01b85526011600452602485fd5b60105434101561081f5750506101416150f6565b6108429060018060a01b03600d541633141580611985575b611955575b346146e4565b6040516108668161085833464260208501614c60565b03601f198101835282613d59565b60208151910120338352601960205260016040842001549061ffff8260501c168061ffff8460401c161460001461191057505050338252601960205261ffff600160408420015460401c165b601d546108c8906001600160801b0316476146e4565b80605a810204605a14811517156118fc576108ef61ffff6064605a8194020493168461441e565b04818111156118f45750905b806118bc5750815b8080808085335af16109136143ee565b50801561183b575b50601a546001600160c01b031961093560c083901c614547565b60c01b166001600160c01b039190911617601a55601b546001600160801b03610962848216828416614616565b6001600160801b0319909216911617601b5560405161098081613d3e565b6002815261032960f51b602082015261099834615709565b90610a2d60296109b461ffff6109ad88615709565b9816614ac1565b96604051978891643130b1b59d60d91b60208401526109dd815180926020602587019101613be2565b82018551906109f3826025830160208a01613be2565b01600560fb1b6025820152610a12825180936020602685019101613be2565b016201294960ed1b6026820152036009810188520186613d59565b610a35614c1c565b94839184601e5493846000198101116107bb5760015b61ffff60001987011661ffff8216101561183157610a6881614478565b5061ffff600260405192610a7b84613d08565b80546001600160401b03168452604051610aa381610a9c8160018601613f19565b0382613d59565b602085015201548181166040840152818160101c1660608401528060201c60070b608084015260601c1660a0820152610adf61ffff83166146f1565b341480611820575b610afa5750610af590614465565b610a4b565b602081015160019b509199935091508861ffff81168b0361125d575050602001513387526019602052610b926020610b46610b4160ff600160408d20015460801c16614578565b615709565b926040519381610b5f8693518092868087019101613be2565b8201610b7382518093868085019101613be2565b01865190610b8682858301868b01613be2565b01038084520182613d59565b935b6040516020810190610bac8161085833464287614c60565b5190203388526019602052604088206002015460881c60ff1661120057338852601960205261ffff600160408a20015460701c1691610bea836147ce565b61ffff60001983011661ffff821611156111ca575b5050338852601960205261ffff600160408a20015460701c1661ffff8316146111c1575b601e5461ffff831610806111a4575b156110275761014199610c4861ffff84166146f1565b338a52601960205260408a20600101805461ffff60701b191660709590951b61ffff60701b16949094179093555b60405193610c8385613d3e565b60048552633a393c9d60e11b6020860152604051610ca081613d23565b8a81529a600f61ffff8216101580611018575b610ff0575b602561ffff821610159081610fe0575b50610fb8575b3410610f91575b15610dbd575091610d719391610cec602294615709565b906040519684610d0689965180926020808a019101613be2565b8501610d1b8251809360208085019101613be2565b0161016160f51b6020820152610d3a8251809360208985019101613be2565b01610d4e8251809360208885019101613be2565b01610d628251809360208785019101613be2565b01036002810184520182613d59565b91835160208501209080604051610d8781613d23565b52802014610d955733614d1c565b9150604051610da381613d3e565b6007815266636c75655f737960c81b602082015291610739565b90945033875260196020526040872060028101549160ff8360801c16600014610ec65750505091602291610d1b94610e80943389526019602052610e28610e23610b4160408c2060ff600182015460801c1690600260018060801b03910154169061463c565b61593c565b610e5660405193610b4160208681610e498183019788815193849201613be2565b8101038088520186613d59565b926040519886610e708b985180926020808c019101613be2565b8701915180936020840190613be2565b91835160208501209080604051610e9681613d23565b52802003610739579150604051610eac81613d3e565b60078152660c6d8eacabee6d60cb1b602082015291610739565b91610ef29593916021606560229795061015600014610f38575050610cec610eec614c1c565b96615709565b91835160208501209080604051610f0881613d23565b52802003610739579150604051610f1e81613d3e565b6007815266636c75655f6c6f60c81b602082015291610739565b60010154610cec91610f6891610e2391610f63916001600160801b039091169060801c60ff1661463c565b614ac1565b610eec602060405183610f848295518092858086019101613be2565b8101038084520182613d59565b9850604051610f9f81613d3e565b60068152651c1c9bd99a5d60d21b602082015298610cd5565b9950604051610fc681613d3e565b6007815266636c75655f737760c81b602082015299610cce565b6028915061ffff16111538610cc8565b9a50604051610ffe81613d3e565b6007815266636c75655f736560c81b60208201529a610cb8565b50602461ffff82161115610cb3565b96989050600a9647998a8060011b046002148b15171561119057611051601254809c60011b614431565b8910611169575b33815260196020526110866040822060ff600182015460801c1690600260018060801b03910154169061463c565b808060011b0460021481151715611155578b6110a49160011b614431565b89106110eb575b976001810181116110d5576101419a6110ca60016110cf930184614c86565b61441e565b91610c76565b634e487b7160e01b600052601160045260246000fd5b338152601960205260408120600181015460029091015491995061111e916001600160801b03169060801c60ff1661463c565b8060011b9080820460021490151715611141578a61113b91614431565b976110ab565b634e487b7160e01b89526011600452602489fd5b634e487b7160e01b82526011600452602482fd5b975047808060011b0460021481151715611141578a61118a9160011b614431565b97611058565b634e487b7160e01b81526011600452602490fd5b50338852601960205260ff600260408a20015460801c1615610c32565b60019150610c23565b60026111d582614478565b50015460201c60070b6111f5576111ee61ffff91614465565b9050610bea565b925038905080610bff565b9061ffff60029160001901160161ffff81116112495761ffff61122d61122861123493614497565b6147ce565b1682614c86565b600101806001116112495761ffff1690610c23565b634e487b7160e01b88526011600452602488fd5b61ffff81166002036112855750506020015161127f6020610b46601054615709565b93610b94565b61ffff81166004036112af57505060200151601a5461127f916001600160401b0390911690615678565b61ffff81166005036112dc5750506020015161127f6020610b4660018060801b03601a5460401c16615709565b61ffff8116600603611304575050602061127f91015163ffffffff601b5460801c1690615678565b61ffff811660070361132e5750506020015161127f6020610b4660018060801b03601c5416615709565b61ffff8116600803611392575050611375611367602061127f930151338a52601960205261ffff600160408c20015460501c1690615678565b61136f614c42565b90615646565b338852601960205261ffff600160408a20015460401c1690615678565b61ffff81166009036113c5575050602061127f910151338852601960205261ffff600160408a20015460601c1690615678565b61ffff8116600a036113fa575050602061127f910151338852601960205263ffffffff600160408a20015460201c1690615678565b61ffff8116600b0361142c575050602061127f910151338852601960205263ffffffff600160408a2001541690615678565b61ffff8116600c0361146057505060200151338752601960205261127f6020610b4660018060801b0360408b205416615709565b61ffff8116600d03611492575050602061127f910151338852601960205260ff600260408a20015460881c16906156a0565b61ffff8116600e036114c4575050602061127f910151338852601960205260ff600260408a20015460801c16906156a0565b600f61ffff8216101580611811575b1561152e5750508061ffff60606115246113678b61150960016040878761127f9b01511693338152601960205220019182614790565b61151a8560408801511680926147af565b6020860151615678565b9201511690615678565b601a61ffff8216101580611802575b1561158657505080602061ffff604061127f9401511691338a526019825261156c600160408c20019384614790565b61157f61ffff60408301511680946147af565b0151615678565b601c61ffff82161015806117f3575b156115d4575050806115c061ffff604061127f94015116338a526019602052600160408b200161491d565b61ffff604060208301519201511690615678565b61ffff8116602103611661575050338752601960205263ffffffff600160408920015460201c16600a811160001461164d5763ffffffff600919820111611249579063ffffffff602061127f9360091901925b338b526019825261163f600160408d2001948561476d565b0151915460201c1690615678565b5061127f9063ffffffff6020600192611627565b61ffff811660220361171a57505060209033885260198252600160408920016001831b63ffffffff841b19825416179055015160016040516116a281613d3e565b6001815260208101916020368437600a602183015b60001901916f181899199a1a9b1b9c1cb0b131b232b360811b8282061a8353049081156116e657600a906116b7565b5050610b869261127f92602092604051958361170b8895518092888089019101613be2565b84019151809386840190613be2565b61ffff811660250361177f57505061127f90338852601960205260ff600260408a20019160208354916088928481851c1660001461176b57508360881b1985541685555b01519254901c16906156a0565b608885901b1916600160881b17855561175e565b9095919061ffff16602714611795575b50610b94565b6117d8919550338852601960205260ff6020600260408b2001928354838160801c166000146117df57508260801b1984541684555b0151915460801c16906156a0565b933861178f565b608084901b1916600160801b1784556117ca565b50602061ffff82161115611595565b50601b61ffff8216111561153d565b50601861ffff821611156114d3565b5061ffff6060820151161515610ae7565b5096909793610b94565b600d546040516118b1916001600160a01b03169061185881613d3e565b6002815261194d60f21b60208201526040519061187482613d3e565b600c82526b4e6f20726566756e6465642160a01b60208301526040519261189a84613d3e565b600584526432b93937b960d91b6020850152614d1c565b15610143573861091b565b816064810204606414821517156118e0576118da9060648302614431565b91610903565b634e487b7160e01b83526011600452602483fd5b9050906108fb565b634e487b7160e01b84526011600452602484fd5b61ffff808460401c168203116107f7579161ffff61194561194f938261193e8197828760401c1690036147ce565b1690614c86565b9160401c1661462f565b166108b2565b601d546001600160801b0361196e838216828416614616565b6001600160801b0319909216911617601d5561083c565b503383526019602052600263ffffffff6001604086200154161015610837565b504733835260196020526119c560ff600160408620015460801c16614578565b1115610282565b63ffffffff60401b19166265006560401b17815583925060ff610256565b5034610235565b338152601960205260408120600101805463ffffffff60201b1916600160201b1790556101e8565b63ffffffff60201b1916600160201b178155386101be565b506012601e5410610113565b8280fd5b611a4a34614975565b6100e9565b610143573861002b565b60003560e01c90816301ffc9a714613b295750806306fdde0314613a86578063081812fc14613a48578063095ea7b31461396157806317554f171461393757806318160ddd146139195780631a335761146136c557806322931cd91461353b57806323b872dd146135245780632a55205a146134aa5780632f745c59146134315780633f3309ca1461340c57806341e42f30146133a057806342842e0e14613378578063476343ee146132a15780634f6ccce71461324b5780635f650a6114612fbe5780636352211e14612f8e57806370a0823114612f63578063715018a614612f1857806375794a3c14612ef1578063837a258f14612e3d578063853828b614612ded5780638da5cb5b14612dc457806395d89b4114612cff578063a22cb46514612c5a578063acec338a14612c24578063b88d4fde14612bd6578063ba3544a214612ba8578063c87b56dd14612b41578063dfc3829414612acd578063dff5165d14611f40578063e2ba3c5c14611d76578063e985e9c514611d20578063efa1c48214611c6d5763f2fde38b14611bf2573861000f565b34611c68576020366003190112611c6857611c0b613c2a565b611c13613df5565b6001600160a01b03908116908115611c4f57600d80546001600160a01b03198116841790915516600080516020615a6a833981519152600080a3005b604051631e4fbdf760e01b815260006004820152602490fd5b600080fd5b34611c68576000366003190112611c6857611c86613df5565b60405180600e5480835260208093018091600e600052846000209060005b86828210611d03578686611cba82880383613d59565b604051928392818401908285525180915260408401929160005b828110611ce357505050500390f35b83516001600160a01b031685528695509381019392810192600101611cd4565b83546001600160a01b031685529093019260019283019201611ca4565b34611c68576040366003190112611c6857611d39613c2a565b611d41613c40565b9060018060a01b03809116600052600560205260406000209116600052602052602060ff604060002054166040519015158152f35b6060366003190112611c68576001600160401b03600435818111611c6857611da2903690600401613d97565b602435828111611c6857611dba903690600401613d97565b91604435908111611c6857611dd3903690600401613d97565b503360005260206019815260018060801b0390816002604060002001541615611f32575b6010543410611f265761014193611f01611efa8354928584169686611e1b89614c90565b166001600160801b0319958616178655600d54611e429089906001600160a01b0316614df6565b611ec06023611e508a614ac1565b93611e5a34615709565b906040519482611e748c8895519281849288019101613be2565b8301600160fd1b8c820152611e938c8351938491602185019101613be2565b016101d160f51b6021820152611eb1825180938d8785019101613be2565b01036003810184520182613d59565b60405191611ef5600b84611ed58a8201614ca8565b6a6d6573736167652e706e6760a81b815203601419810186520184613d59565b6153be565b8095614fe5565b81549083821693611f1185614c90565b169116179055611f218133614df6565b614fe5565b505050506101416150f6565b611f3b34614975565b611df7565b34611c6857610120366003190112611c6857611f5a613ca6565b6024356001600160401b038111611c6857611f79903690600401613d97565b60443591906001600160801b03908184168403611c68576064356001600160401b0381168103611c685760ff6084351660843503611c685760a4356001600160401b038111611c6857611fd0903690600401613d97565b60c4356001600160401b038111611c6857611fef903690600401613d97565b9160e435938585168503611c68576001600160401b036101043511611c685736602361010435011215611c685761202c6101043560040135613dde565b9761203a604051998a613d59565b6101043560040135895260208901366024610104356004013560051b61010435010111611c685760246101043501905b6024610104356004013560051b6101043501018210612a9c57505061208d613df5565b81516001600160401b0381116126805787926120aa600f54613e5a565b601f8111612a4d575b50602090601f83116001146129dc5760009190836129d1575b50508160011b916000199060031b1c191617600f555b166010556001600160401b039081166012556011805461ff00191660843560081b61ff0016179055815191908211612680578190612121601354613e5a565b601f8111612994575b50602090601f831160011461291c57600092612911575b50508160011b916000199060031b1c1916176013555b8051906001600160401b038211612680578190612175601454613e5a565b601f81116128c9575b50602090601f831160011461285157600092612846575b50508160011b916000199060031b1c1916176014555b1660018060801b0319601754161760175515612796575b60005b8151811015612722576121d88183614451565b5160185490600160401b82101561268057600182018060185582101561239d57601860005261221691600080516020615a2a8339815191520161523b565b6122208183614451565b516040519161222e83613d3e565b600483526020368185013760005b600481106126f65750815160031981019081116110d55761225c90614a8f565b9360045b83518110156122a2576001600160f81b031961227c8286614bfe565b51169060031981018181116110d55761229b60019360001a9189614bfe565b5301612260565b5093909291506122b28151614a8f565b9360005b8251811015612302576122fd906001600160f81b0319806122d78387614bfe565b5116906122e76003841688614bfe565b51161860001a6122f78289614bfe565b5361522c565b6122b6565b506040519094909250905060a082016001600160401b038111838210176126805760405260a036833760009360005b82518110806126e9575b156123b357601f60fa1b6001600160f81b03196123588386614bfe565b51161461236e575b6123699061522c565b612331565b94600560ff8216101561239d5785611fe08260051b1685015260ff808216146110d55760ff1660010194612360565b634e487b7160e01b600052603260045260246000fd5b5091909293508051936123c585614a8f565b9460005b8181106126be5750506000805b865182101561242b576001600160401b03908116600a029081168190036110d55761242360019160ff61241561240c868c614bfe565b5160f81c61535e565b1690838060401b031661455f565b9101906123d6565b92949395505083516001810181116110d557612451602086019160018351910186615302565b905190600182018092116110d557612478612473604088019384519088615302565b615371565b915194600186018096116110d55761249a612473606089019788519084615302565b9551600181018091116110d55760808801516124b69183615302565b9560009760009860009a89511561239d5760208a01516001600160f81b031916602d60f81b146126b2575b99905b895182101561254c57600a6124f9838c614bfe565b5160f81c9160070b0290818060070b036110d55761251860ff9161535e565b16600790810b91900b0160016001603f1b0319811260016001603f1b038213176110d557612546909161522c565b906124e4565b9597999a9192939496985050612696575b60800151916001830183116110d55761ffff956125866124738895846001889651920190615302565b95604051996125948b613d08565b6001600160401b03168a5260208a015216604088015216606086015260070b60808501521660a0830152601e8054600160401b811015612680576125dd91600182019055614478565b61266a576126659261ffff60a060026126609460018060401b0385511660018060401b031982541617815561261960208601516001830161523b565b01928260408201511684549063ffff0000606084015160101b1690608084015160201b600160201b600160601b03169260018060601b03191617171784550151169061491d565b61522c565b6121c5565b634e487b7160e01b600052600060045260246000fd5b634e487b7160e01b600052604160045260246000fd5b9260070b60016001603f1b031981146110d5576000039261255d565b60019b508b9a506124e1565b6126e4906001600160f81b03196126d58289614bfe565b511660001a6122f7828a614bfe565b6123c9565b50600560ff87161061233b565b6001906001600160f81b031961270c8286614bfe565b511660001a61271b8287614bfe565b530161223c565b601e54801561239d57601e600052600080516020615a4a833981519152546001600160401b03166012819055906005101561239d57601e6000527f50bb669a95c7b50b7e8a6f09454034b2b14cf2b85c730dca9a539ca82cb6e35f5461279191906001600160401b031661441e565b601055005b601e546000601e55806127f1575b506018546000601855806127b9575b506121c2565b6018600052600080516020615a2a833981519152908101905b8181106127df57506127b3565b806127eb6001926147f8565b016127d2565b60039080820290828204036110d557601e600052600080516020615a4a833981519152908101905b8181106128275750506127a4565b806000849255612839600182016147f8565b6000600282015501612819565b015190508680612195565b601460009081529350600080516020615aaa83398151915291905b601f19841685106128ae576001945083601f19811610612895575b505050811b016014556121ab565b015160001960f88460031b161c19169055868080612887565b8181015183556020948501946001909301929091019061286c565b601460005261290190600080516020615aaa833981519152601f850160051c81019160208610612907575b601f0160051c01906147e1565b8761217e565b90915081906128f4565b015190508780612141565b601360009081529350600080516020615a0a83398151915291905b601f1984168510612979576001945083601f19811610612960575b505050811b01601355612157565b015160001960f88460031b161c19169055878080612952565b81810151835560209485019460019093019290910190612937565b60136000526129cb90600080516020615a0a833981519152601f850160051c8101916020861061290757601f0160051c01906147e1565b8861212a565b015190508b806120cc565b93929190600f60005260206000209060005b601f1984168110612a325750600193949583601f19811610612a19575b505050811b01600f556120e2565b015160001960f88460031b161c191690558b8080612a0b565b8682015183558b9550600190920191602091820191016129ee565b600f600052612a96907f8d1108e10bcb7c27dddfc02ed9d693a074039d026cf4ea4240b40f7d581ac802601f850160051c8101916020861061290757601f0160051c01906147e1565b8b6120b3565b6001600160401b03823511611c685760208091612ac23660248635610104350101613d97565b81520191019061206a565b34611c68576080366003190112611c6857612ae6613c2a565b6001600160401b0390602435828111611c6857612b07903690600401613d97565b604435838111611c6857612b1f903690600401613d97565b90606435938411611c6857612b3b610141943690600401613d97565b92614d1c565b34611c68576020366003190112611c6857600435612b5e8161437d565b50600052600a602052612ba4610a9c612b81604060002060405192838092613f19565b6000604051612b8f81613d23565b52604051918291602083526020830190613c05565b0390f35b34611c68576000366003190112611c68576040612bc36144ab565b825161ffff928316815291166020820152f35b34611c68576080366003190112611c6857612bef613c2a565b612bf7613c40565b606435916001600160401b038311611c6857612c1a610141933690600401613d97565b9160443591614239565b34611c68576020366003190112611c6857612c3d613ca6565b612c45613df5565b60ff8019601154169115151617601155600080f35b34611c68576040366003190112611c6857612c73613c2a565b60243590811515809203611c68576001600160a01b0316908115612ce657336000526005602052604060002082600052602052604060002060ff1981541660ff83161790556040519081527f17307eab39ab6107e8899845ad3d59bd9653f200f220920489ca2b5937696c3160203392a3005b604051630b61174360e31b815260048101839052602490fd5b34611c68576000366003190112611c685760405160009060018054612d2381613e5a565b80845290828116908115612d9c5750600114612d5e575b612ba483612d4a81870382613d59565b604051918291602083526020830190613c05565b92508060005260209283600020916000925b828410612d8957505050810190910190612d4a81612d3a565b8054858501870152928501928101612d70565b612ba49550612d4a93506020915091849260ff191682840152151560051b8201019350612d3a565b34611c68576000366003190112611c6857600d546040516001600160a01b039091168152602090f35b34611c68576000366003190112611c6857612e06613df5565b600080808060018060a01b03600d54164790828215612e34575bf115612e2857005b6040513d6000823e3d90fd5b506108fc612e20565b34611c68576040366003190112611c685760043560ff81168103611c6857602435906001600160801b0382168203611c6857612ba4612e96610b41612e90610b41612ec796612e8a613df5565b8661463c565b93614578565b612ee3612ea4601254615709565b612ed5612eb2601054615709565b93604051978897608089526080890190613c05565b908782036020890152613c05565b908582036040870152613c05565b908382036060850152613c05565b34611c68576000366003190112611c6857602080546040516001600160801b039091168152f35b34611c68576000366003190112611c6857612f31613df5565b600d80546001600160a01b031981169091556000906001600160a01b0316600080516020615a6a8339815191528280a3005b34611c68576020366003190112611c68576020612f86612f81613c2a565b613e21565b604051908152f35b34611c68576020366003190112611c68576020612fac60043561437d565b6040516001600160a01b039091168152f35b34611c68576000366003190112611c6857612fd7613df5565b600e54612fe381613dde565b90612ff16040519283613d59565b808252601f1961300082613dde565b0160005b8181106131dc57505060005b8181106130f45760408051602080825285518183018190528187019383019160005b82811061303f5784840385f35b909192826101806001928851848060801b038082511683528085830151168584015263ffffffff80604084015116604085015260609081840151169084015261ffff60808181850151169085015260a08181850151169085015260c08181850151169085015260e08301511660e084015261010060ff81840151169084015261012090818301511690830152610140808201511515908301526101608091015115159082015201960191019492919094613032565b6130fd816143d3565b60018060a01b0391549060031b1c166000526020906019825260406000206040519061312882613cec565b805460018060801b03948582168452608091821c8185015260019586840154809263ffffffff8083166040890152826060921c168188015261ffff918291828260401c16878a0152828260501c1660a08a01521c1660c08701528260701c1660e0860152600260ff94858094861c16610100880152015492839182166101208701521c16151561014084015260881c1615156101608201526131ca8286614451565b526131d58185614451565b5001613010565b6020906040516131eb81613cec565b6000815282600081830152600060408301526000606083015260006080830152600060a0830152600060c0830152600060e08301526000610100830152600061012083015260006101408301526000610160830152828701015201613004565b34611c68576020366003190112611c6857600435600854811015613282576132746020916143b8565b90546040519160031b1c8152f35b6044906040519063295f44f760e21b8252600060048301526024820152fd5b34611c68576000366003190112611c68576132ba613df5565b601d546001600160801b03811690811561333d576001600160801b031916601d55600d546000918291829182916001600160a01b03165af16132fa6143ee565b501561330257005b60405162461bcd60e51b8152602060048201526013602482015272119959481d1c985b9cd9995c8819985a5b1959606a1b6044820152606490fd5b60405162461bcd60e51b81526020600482015260136024820152724e6f206665657320746f20776974686472617760681b6044820152606490fd5b34611c685761014161338936613c56565b906040519261339784613d23565b60008452614239565b34611c68576020366003190112611c68576133b9613c2a565b6133c1613df5565b6001600160a01b031680156133f357604080519081016001600160401b03811191111761268057607d60a21b17600b55005b604051635b6cc80560e11b815260006004820152602490fd5b34611c68576000366003190112611c6857613425613df5565b612ba4612d4a47615709565b34611c68576040366003190112611c685761344a613c2a565b6024359061345781613e21565b82101561348a5760018060a01b031660005260066020526040600020906000526020526020604060002054604051908152f35b6134a660405192839263295f44f760e21b845260048401613c8b565b0390fd5b34611c68576040366003190112611c68576004356000908152600c60205260409020546001600160a01b038082169160a01c90821561350f575b50612710906134fe906001600160601b031660243561441e565b0490612ba460405192839283613c8b565b600b54908116925060a01c90506134fe6134e4565b34611c685761014161353536613c56565b91613faf565b34611c68576000366003190112611c6857600061010060405161355d81613cd0565b8281528260208201528260408201528260608201528260808201528260a08201528260c08201528260e08201520152613594613df5565b6101206040516135a381613cd0565b601a549060018060401b038216815260018060801b038260401c1660208201528160c01c604082015263ffffffff601b5460018060801b038116606084015260801c166080820152601c5460018060801b03811660a083015260ff8160801c1660c083015260018060401b039060881c1660e082015260018060801b03601d54166101008201526040519160018060401b0316825260018060801b03602082015116602083015260018060401b03604082015116604083015260018060801b03606082015116606083015263ffffffff608082015116608083015260018060801b0360a08201511660a083015260ff60c08201511660c083015260018060401b0360e08201511660e083015261010060018060801b0391015116610100820152f35b34611c68576000366003190112611c68576040516136e281613cb5565b6060908181528160c060209260008482015260006040820152600083820152600060808201528260a08201520152613718613df5565b60405161372481613cb5565b604051600f549060008161373784613e5a565b918282526001948786821691826000146138fc5750506001146138bb575b61376192500382613d59565b825260105490838301918252601154604084019560ff82161515875260ff8186019260081c168252601254966080860197885260405193600090601354906137a882613e5a565b8088529181811690811561389d5750600114613863575b505061385293859360e09a936137de612ba49a999860ff950387613d59565b60a08901958652613822604051996138008b6137f981613e94565b038c613d59565b60c081019a8b526040519d8d8f9e928f938452519201526101008d0190613c05565b975160408c0152511515908a0152511660808801525160a08701525191601f1992838783030160c0880152613c05565b9151908483030160e0850152613c05565b9150601360005288600020916000925b82841061388a575050508401870183612ba46137bf565b80548885018c0152928a01928101613873565b60ff19168b8901525050151560051b85018801905083612ba46137bf565b5050600f600052818580600020856000915b8583106138e35750506137619350820101613755565b80919294505483858801015201910186908585936138cd565b60ff19168482015261376194151560051b84010191506137559050565b34611c68576000366003190112611c68576020600854604051908152f35b34611c68576020366003190112611c6857613950613df5565b612ba4612d4a610b416004356146f1565b34611c68576040366003190112611c685761397a613c2a565b6024356139868161437d565b33151580613a35575b80613a08575b6139f0576001600160a01b039283169282918491167f8c5be1e5ebec7d5bd14f71427d1e84f3dd0314c0f7b2291e5b200ac8c7c3b925600080a4600090815260046020526040902080546001600160a01b0319169091179055005b60405163a9fbf51f60e01b8152336004820152602490fd5b5060018060a01b038116600052600560205260406000203360005260205260ff6040600020541615613995565b506001600160a01b03811633141561398f565b34611c68576020366003190112611c6857600435613a658161437d565b506000526004602052602060018060a01b0360406000205416604051908152f35b34611c68576000366003190112611c6857604051600090600054613aa981613e5a565b808352600191808316908115612d9c5750600114613ad157612ba483612d4a81870382613d59565b600080805260209450917f290decd9548b62a8d60345a988386fc84ba6bc95484008f6362f93160ef3e5635b828410613b1657505050810190910190612d4a81612d3a565b8054858501870152928501928101613afd565b34611c68576020366003190112611c68576004359063ffffffff60e01b8216809203611c685760209163152a902d60e11b8114908115613b6b575b5015158152f35b632483248360e11b811491508115613b85575b5083613b64565b63780e9d6360e01b811491508115613b9f575b5083613b7e565b6380ac58cd60e01b811491508115613bd1575b8115613bc0575b5083613b98565b6301ffc9a760e01b14905083613bb9565b635b5e139f60e01b81149150613bb2565b60005b838110613bf55750506000910152565b8181015183820152602001613be5565b90602091613c1e81518092818552858086019101613be2565b601f01601f1916010190565b600435906001600160a01b0382168203611c6857565b602435906001600160a01b0382168203611c6857565b6060906003190112611c68576001600160a01b03906004358281168103611c6857916024359081168103611c68579060443590565b6001600160a01b039091168152602081019190915260400190565b600435908115158203611c6857565b60e081019081106001600160401b0382111761268057604052565b61012081019081106001600160401b0382111761268057604052565b61018081019081106001600160401b0382111761268057604052565b60c081019081106001600160401b0382111761268057604052565b602081019081106001600160401b0382111761268057604052565b604081019081106001600160401b0382111761268057604052565b601f909101601f19168101906001600160401b0382119082101761268057604052565b6001600160401b03811161268057601f01601f191660200190565b81601f82011215611c6857803590613dae82613d7c565b92613dbc6040519485613d59565b82845260208383010111611c6857816000926020809301838601378301015290565b6001600160401b0381116126805760051b60200190565b600d546001600160a01b03163303613e0957565b60405163118cdaa760e01b8152336004820152602490fd5b6001600160a01b03168015613e4157600052600360205260406000205490565b6040516322718ad960e21b815260006004820152602490fd5b90600182811c92168015613e8a575b6020831014613e7457565b634e487b7160e01b600052602260045260246000fd5b91607f1691613e69565b60145460009291613ea482613e5a565b908181526001928381169081600014613efe5750600114613ec457505050565b9092935060146000526020928360002092846000945b838610613eea5750505050010190565b805485870183015294019385908201613eda565b91935050602093945060ff191683830152151560051b010190565b9060009291805491613f2a83613e5a565b918282526001938481169081600014613f8c5750600114613f4c575b50505050565b90919394506000526020928360002092846000945b838610613f78575050505001019038808080613f46565b805485870183015294019385908201613f61565b9294505050602093945060ff191683830152151560051b01019038808080613f46565b6001600160a01b038281169391841561422057600094838652602095600287526040968488832054169633151580614194575b5087158015614174575b84845260038352898420805460010190558784526002835289842080546001600160a01b0319168617905587858a600080516020615a8a8339815191528780a4156141085760085487845260098352898420819055600160401b8110156140f4578761406182600161407a94016008556143b8565b90919082549060031b91821b91600019901b1916179055565b8388036140b6575b5050505016928383036140955750505050565b6064945051926364283d7b60e01b8452600484015260248301526044820152fd5b6140bf90613e21565b6000198101939084116118e05782916007918a9452600681528383208584528152878484205587835252205538808080614082565b634e487b7160e01b84526041600452602484fd5b87841461407a5761411888613e21565b878452600783528984205490898552600684528a852091818103614152575b5088855260078452848b81205584528252828981205561407a565b8186528285528b862054818752808d8820558652600785528b86205538614137565b61417d8861435f565b888452600383528984208054600019019055613fec565b806141df575b156141a55738613fe2565b8887896141c2576024915190637e27328960e01b82526004820152fd5b905163177e802f60e01b81529081906134a6903360048401613c8b565b503388148015614204575b8061419a57508683526004825233868a852054161461419a565b5087835260058252888320338452825260ff89842054166141ea565b604051633250574960e11b815260006004820152602490fd5b9190614246828285613faf565b803b6142525750505050565b61429460018060a01b0380921694604051938493630a85bd0160e11b968786523360048701521660248501526044840152608060648401526084830190613c05565b03906020816000938185885af190829082614313575b50506142e257826142b96143ee565b80519190826142db57604051633250574960e11b815260048101839052602490fd5b9050602001fd5b6001600160e01b031916036142fb575038808080613f46565b60249060405190633250574960e11b82526004820152fd5b909192506020813d8211614357575b8161432f60209383613d59565b810103126143535751906001600160e01b03198216820361014357509038806142aa565b5080fd5b3d9150614322565b600090815260046020526040902080546001600160a01b0319169055565b6000818152600260205260409020546001600160a01b03169081156143a0575090565b60249060405190637e27328960e01b82526004820152fd5b60085481101561239d57600860005260206000200190600090565b600e5481101561239d57600e60005260206000200190600090565b3d15614419573d906143ff82613d7c565b9161440d6040519384613d59565b82523d6000602084013e565b606090565b818102929181159184041417156110d557565b811561443b570490565b634e487b7160e01b600052601260045260246000fd5b805182101561239d5760209160051b010190565b61ffff8091169081146110d55760010190565b601e5481101561239d57601e6000526003602060002091020190600090565b61ffff90811660001901919082116110d557565b601e54600091825b61ffff80851690848210156144fd5760026144cd87614478565b50015460601c16036144e957506144e383614465565b926144b3565b92509061ffff6144fa915b16614497565b90565b505092509061ffff6144fa916144f4565b60ff60059116029060ff82169182036110d557565b60ff60019116019060ff82116110d557565b60ff60029116019060ff82116110d557565b6001600160401b03908116600101919082116110d557565b6001600160401b0391821690821601919082116110d557565b600160ff82169182156000146145f857505060056001915b10806145e1575b15611c68576145c96145d7826145af6144fa94614478565b50546001600160401b03939084169184916145ce91614535565b614478565b5054169061455f565b166012549061441e565b506145eb81614535565b60ff601e54911610614597565b61460360ff9161450e565b160160ff81116110d55760059091614590565b6001600160801b0391821690821601919082116110d557565b919082018092116110d557565b600260ff82169182156000146146b857505060025b60058210806146a1575b15611c68576146766145c96145d7836145af6103e895614478565b926001600160801b0392839161468c9190614616565b16029081169081036110d5576144fa9161462f565b506146ab81614535565b60ff601e5491161061465b565b6146c360ff9161450e565b160160ff81111561465157634e487b7160e01b600052601160045260246000fd5b919082039182116110d557565b90600261470060105493614478565b50015460201c60070b6012549283820291600160ff1b90600095828114878312166107bb5781850514901517156107f75784831261474457506144fa92935061462f565b829192146118fc576144fa929303906146e4565b90600163ffffffff809316019182116110d557565b805463ffffffff60201b191660209290921b63ffffffff60201b16919091179055565b805461ffff60401b191660409290921b61ffff60401b16919091179055565b805461ffff60501b191660509290921b61ffff60501b16919091179055565b90600161ffff809316019182116110d557565b8181106147ec575050565b600081556001016147e1565b6148028154613e5a565b908161480c575050565b81601f6000931160011461481f5750555b565b90808391825261483e601f60208420940160051c8401600185016147e1565b5555565b9061484b6144ab565b91905b601e805461ffff61485e846147ce565b168111156148c35780156148ae57600019019061487a82614478565b61489a576002600091828155614892600182016147f8565b01555561484e565b60246000634e487b7160e01b815280600452fd5b60246000634e487b7160e01b81526031600452fd5b50509192909261ffff8084169116811491826148ef575b50506000906000146148ea575090565b905090565b60049192506148ff60ff9161450e565b160160ff81116110d55761491460ff91614523565b161038806148da565b805461ffff60601b191660609290921b61ffff60601b16919091179055565b6040519061494982613d3e565b601e82527f476f6f64204c75636b20616e642067657420616c6c2062616c616e63652100006020830152565b33600090815260196020526040812060018101805460028301805461ffff60801b1916600160881b1790556001600160881b0319166c01005a006600000001000000011790556001600160801b039283169055600e54909190600160401b811015614a7b576002916149ef82600160409401600e556143d3565b81549060031b9033821b9160018060a01b03901b1916179055600e541692338152601960205220019060018060801b031982541617905561481d604051614a3581613d3e565b600881526757656c636f6d652160c01b6020820152614a5261493c565b60405191614a5f83613d3e565b600983526877656c636f6d655f3160b81b602084015233614d1c565b634e487b7160e01b83526041600452602483fd5b90614a9982613d7c565b614aa66040519182613d59565b8281528092614ab7601f1991613d7c565b0190602036910137565b6000908072184f03e93ff9f4daa797ed6e38ed64bf6a1f0160401b80821015614bf0575b506904ee2d6d415b85acef8160201b80831015614be1575b50662386f26fc1000080831015614bd2575b506305f5e10080831015614bc3575b5061271080831015614bb4575b506064821015614ba4575b600a80921015614b9a575b600190816021614b52828701614a8f565b95860101905b614b64575b5050505090565b600019019083906f181899199a1a9b1b9c1cb0b131b232b360811b8282061a835304918215614b9557919082614b58565b614b5d565b9160010191614b41565b9190606460029104910191614b36565b60049193920491019138614b2b565b60089193920491019138614b1e565b60109193920491019138614b0f565b60209193920491019138614afd565b604093508104915038614ae5565b90815181101561239d570160200190565b80156110d5576000190190565b60405190614c2982613d3e565b600a82526909cde40c6d8eaca4074560b31b6020830152565b60405190614c4f82613d3e565b60028252612d2560f01b6020830152565b908152602081019190915260609190911b6001600160601b031916604082015260540190565b811561443b570690565b6001600160801b039081169081146110d55760010190565b60135460009291614cb882613e5a565b91600190818116908115614d095750600114614cd357505050565b9091929350601360005260209081600020906000915b858310614cf857505050500190565b805485840152918301918101614ce9565b60ff191683525050811515909102019150565b919261481d93614df092611ef56004602094614d6186549860018060801b0390818b169a8b92614d4b84614c90565b6001600160801b03199092169116178955614df6565b614db58660405196614d7d88614d7681613e94565b0389613d59565b6040519781614d958a93518092868087019101613be2565b8201614da982518093868085019101613be2565b01038088520186613d59565b604051958691614dd6614dc9838501614ca8565b9182815194859201613be2565b01632e706e6760e01b815203601b19810186520184613d59565b90614fe5565b6001600160a01b0390808216801561422057600093808552602090600282526040948587205416938415948486159687614f8b575b818a5260038652888a2080546001019055848a5260028652888a2080546001600160a01b03191683179055848284600080516020615a8a8339815191528d80a415614f1d575060085483895260098552878920819055600160401b811015614f095790614ea3846140618460018a96016008556143b8565b03614ecc575b50505050614eb5575050565b6024925051906339e3563760e11b82526004820152fd5b614ed590613e21565b6000198101939084116107bb5786526006825284862083875282528486208190558552600790528284205538808080614ea9565b634e487b7160e01b89526041600452602489fd5b90808214614ea357614f2e81613e21565b848a5260078652888a205490828b5260068752898b2091818103614f68575b50858b52600787528a8a8120558a5285528888812055614ea3565b818c528288528a8c2054818d528b8d208190558c52600788528a8c205538614f4d565b614f948561435f565b828a5260038652888a208054600019019055614e2b565b9190601f8111614fba57505050565b61481d926000526020600020906020601f840160051c8301931061290757601f0160051c01906147e1565b6000818152600a60209081526040822084519495949193929091906001600160401b0382116150e2576150228261501c8554613e5a565b85614fab565b8490601f83116001146150705790600080516020615aca833981519152969783615065575b50508160011b916000199060031b1c19161790555b604051908152a1565b015190503880615047565b9196601f198816848452868420935b8181106150cb5750916001939189600080516020615aca833981519152999a94106150b2575b505050811b01905561505c565b015160001960f88460031b161c191690553880806150a5565b92938760018192878601518155019501930161507f565b634e487b7160e01b81526041600452602490fd5b6150ff34615709565b9060105491601e541561239d57601e60009081527f50bb669a95c7b50b7e8a6f09454034b2b14cf2b85c730dca9a539ca82cb6e3525460125460209190911c60070b818102959291600160ff1b9190838212838214166118fc57818805149015171561115557818612615210575050610b4161481d939461517f9261462f565b6151ea604f60405180937f6261636b3a20302e30204c6f7720617474656d70742c207468616e6b7320666f60208301526e7220646f6e6174696f6e2e2074727960881b60408301526151da8151809260208686019101613be2565b810103602f810184520182613d59565b604051916151f783613d3e565b60068352657468616e6b7360d01b602084015233614d1c565b859195146107f75761517f91610b419161481d959603906146e4565b60001981146110d55760010190565b81519192916001600160401b038111612680576152628161525c8454613e5a565b84614fab565b602080601f831160011461529e575081929394600092615293575b50508160011b916000199060031b1c1916179055565b01519050388061527d565b90601f198316958460005282600020926000905b8882106152ea575050836001959697106152d1575b505050811b019055565b015160001960f88460031b161c191690553880806152c7565b806001859682949686015181550195019301906152b2565b929161531661531183836146e4565b614a8f565b91805b82811061532857509193505050565b615359906001600160f81b031961533f8289614bfe565b51166122f761534e85846146e4565b9160001a9187614bfe565b615319565b60ff602f199116019060ff82116110d557565b906000809283915b81518310156153b857600a61ffff809216028181169081036107e35760ff6153a461240c8686614bfe565b16019081116107f757600190920191615379565b93505050565b909161548760476040948551938491602096607b60f81b8885015267113730b6b2911d1160c11b60218501526153fd815180928a602988019101613be2565b83019061088b60f21b918260298201526e113232b9b1b934b83a34b7b7111d1160891b602b820152615438825180938b603a85019101613be2565b0190603a820152681134b6b0b3b2911d1160b91b603c8201526154648251809389604585019101613be2565b01601160f91b6045820152607d60f81b6046820152036027810184520182613d59565b825160608101939092906001600160401b03851184861017612680576155056144fa94603d9461553e9784528382527f4142434445464748494a4b4c4d4e4f505152535455565758595a616263646566858301527f6768696a6b6c6d6e6f707172737475767778797a303132333435363738392b2f8483015261554e565b905194827f646174613a6170706c69636174696f6e2f6a736f6e3b6261736536342c000000879485015282519283918686019101613be2565b810103601d810184520182613d59565b8051156156315780516002918282018092116110d5576003918290046001600160fe1b03811681036110d557615587908495941b614a8f565b936020850193829183518401906020820192835194600085525b8381106155e05750505050525106806001146155cd576002146155c2575090565b603d90600019015390565b50603d9081600019820153600119015390565b87600491999293949901918251600190603f9082828260121c16880101518453828282600c1c16880101518385015382828260061c16880101518885015316850101518982015301979291906155a1565b505060405161563f81613d23565b6000815290565b60206144fa9160405193816156648693518092868087019101613be2565b8201610b8682518093868085019101613be2565b9060206156876144fa92614ac1565b9260405193816156648693518092868087019101613be2565b90156156e1576144fa60206040516156b781613d3e565b60048152637472756560e01b82820152925b60405193816156648693518092868087019101613be2565b6144fa60206040516156f281613d3e565b600581526466616c736560d81b82820152926156c9565b61571f670de0b6b3a7640000808306920461589e565b90801561589a579060405161573381613d3e565b60128152602092833681840137601290815b61584f57505080515b8015158061580b575b1561576a5761576590614c0f565b61574e565b9290919280156158055761577d81614a8f565b92600090815b8381106157db57505050506157cc926144fa9260219260405195836157b18895518092858089019101613be2565b840191601760f91b8184015283519384918785019101613be2565b01036001810184520182613d59565b615800906001600160f81b03196157f28285614bfe565b5116841a6122f78289614bfe565b615783565b50505090565b50600019810181811161583a57600360fc1b906001600160f81b0319906158329085614bfe565b511614615757565b60246000634e487b7160e01b81526011600452fd5b600a603091818106830180931161583a57600019840184811161583a576158939360f81b6001600160f81b03191660001a9061588b9087614bfe565b530491614c0f565b9081615745565b5090565b801561591e5780600081805b61590657506158b881614a8f565b925b6158c357505090565b60001981019081116110d5578091600a91603083830681018091116110d55760f81b6001600160f81b03191660001a906158fd9086614bfe565b530490816158ba565b9150615913600a9161522c565b9104808392916158aa565b5060405161592b81613d3e565b60018152600360fc1b602082015290565b906159478251614a8f565b91604051602081014281523360601b604083015244605483015260548252608082019180831060018060401b038411176126805761598d92604052519020825190614c86565b926000805b8351811015615a01576159ce906001600160f81b0319806159b38388614bfe565b511690601760f91b82036159d35750831a6122f78286614bfe565b615992565b90508188036159f4576159e68287614bfe565b5116831a6122f78286614bfe565b5060786122f78286614bfe565b50909350505056fe66de8ffda797e3de9c05e8fc57b3bf0ec28a930d40b0d285d93c06501cf6a090b13d2d76d1f4b7be834882e410b3e3a8afaf69f83600ae24db354391d2378d2e50bb669a95c7b50b7e8a6f09454034b2b14cf2b85c730dca9a539ca82cb6e3508be0079c531659141344cd1fd0a4f28419497f9722a3daafe3b4186f6b6457e0ddf252ad1be2c89b69c2b068fc378daa952ba7f163c4a11628f55a4df523b3efce6d7b5282bd9a3661ae061feed1dbda4e52ab073b1f9285be6e155d9c38d4ecf8e1a15aba9398e019f0b49df1a4fde98ee17ae345cb5f6b5e2c27f5033e8ce7a2646970667358221220bf7076f9f5f034cef6c813e927964c9c42941dcdfe7eff3cb7e2ea6e22784bc964736f6c63430008140033290decd9548b62a8d60345a988386fc84ba6bc95484008f6362f93160ef3e56366de8ffda797e3de9c05e8fc57b3bf0ec28a930d40b0d285d93c06501cf6a090b10e2d527612073b26eecdfd717e6a320cf44b4afac2b0732d9fcbe2b7fa0cf68d1108e10bcb7c27dddfc02ed9d693a074039d026cf4ea4240b40f7d581ac802",
  "linkReferences": {},
  "deployedLinkReferences": {}
}